:020000040800F2
:1040000000500020F54B0008E15E0008E35E000868
:10401000E55E0008E75E0008E95E000800000000B9
:104020000000000000000000000000002760000801
:1040300029600008000000002B600008ED5E000809
:10404000B55F0008B75F0008B95F0008BB5F0008F4
:10405000BD5F0008BF5F0008C15F0008C35F0008C4
:10406000C55F0008C75F0008C95F0008CB5F000894
:10407000CD5F0008CF5F0008D15F0008D35F000864
:10408000D55F0008D75F0008D95F0008DB5F000834
:104090002D600008DD5F0008DF5F0008015F000899
:1040A000E15F0008E35F0008E55F0008E75F0008E4
:1040B00025600008FD5E0008E95F0008EB5F00086E
:1040C000ED5F0008EF5F0008F15F0008F35F000894
:1040D000F55F0008F75F0008F95F0008FB5F000864
:1040E000FD5F0008FF5F0008016000080360000832
:1040F0000560000807600008096000080B60000800
:104100000D6000080F6000081160000813600008CF
:104110001560000817600008196000081B6000089F
:104120001D6000081F60000821600008236000086F
:10413000000000000000000000000000000000007F
:10414000000000000000000000000000000000006F
:10415000000000000000000000000000000000005F
:10416000000000000000000000000000000000004F
:10417000000000000000000000000000000000003F
:08418000000000000000000037
:1041880010B5054C237833B9044B13B10448AFF389
:1041980000800123237010BDE4000020000000000F
:1041A80068A30008084B10B51BB108490848AFF3CD
:1041B80000800848036803B910BD074B002BFBD0EB
:1041C800BDE81040184700BF00000000E8000020CC
:1041D80068A30008E400002000000000034613F86C
:1041E800012B002AFBD1181A0138704781F00041D1
:1041F80002E000BF83F0004330B54FEA41044FEAC4
:10420800430594EA050F08BF90EA020F1FBF54EA5E
:10421800000C55EA020C7FEA645C7FEA655C00F0FA
:10422800E2804FEA5454D4EB5555B8BF6D420CDDCB
:104238002C4480EA020281EA030382EA000083EA4E
:10424800010180EA020281EA0303362D88BF30BDEE
:1042580011F0004F4FEA01314FF4801C4CEA113144
:1042680002D0404261EB410113F0004F4FEA0333A3
:104278004CEA133302D0524263EB430394EA050F2E
:1042880000F0A780A4F10104D5F1200E0DDB02FA9D
:104298000EFC22FA05F2801841F1000103FA0EF231
:1042A800801843FA05F359410EE0A5F120050EF1F7
:1042B800200E012A03FA0EFC28BF4CF0020C43FA28
:1042C80005F3C01851EBE37101F0004507D54FF035
:1042D800000EDCF1000C7EEB00006EEB0101B1F585
:1042E800801F1BD3B1F5001F0CD349085FEA3000CB
:1042F8004FEA3C0C04F101044FEA445212F5800FD6
:1043080080F09A80BCF1004F08BF5FEA500C50F172
:10431800000041EB045141EA050130BD5FEA4C0C55
:10432800404141EB010111F4801FA4F10104E9D1DE
:1043380091F0000F04BF01460020B1FA81F308BFD5
:104348002033A3F10B03B3F120020CDA0C3208DDA1
:1043580002F1140CC2F10C0201FA0CF021FA02F17C
:104368000CE002F11402D8BFC2F1200C01FA02F1EC
:1043780020FA0CFCDCBF41EA0C019040E41AA2BF11
:1043880001EB0451294330BD6FEA04041F3C1CDAD9
:104398000C340EDC04F11404C4F1200220FA04F0F9
:1043A80001FA02F340EA030021FA04F345EA0301A3
:1043B80030BDC4F10C04C4F1200220FA02F001FA65
:1043C80004F340EA0300294630BD21FA04F02946E7
:1043D80030BD94F0000F83F4801306BF81F4801180
:1043E8000134013D4EE77FEA645C18BF7FEA655CF3
:1043F80029D094EA050F08BF90EA020F05D054EAC5
:10440800000C04BF1946104630BD91EA030F1EBFC9
:104418000021002030BD5FEA545C05D140004941CD
:1044280028BF41F0004130BD14F580043CBF01F5C0
:10443800801130BD01F0004545F0FE4141F47001A6
:104448004FF0000030BD7FEA645C1ABF1946104681
:104458007FEA655C1CBF0B46024650EA013406BF82
:1044680052EA033591EA030F41F4002130BD00BF41
:1044780090F0000F04BF0021704730B54FF48064FE
:1044880004F132044FF000054FF0000150E700BF7F
:1044980090F0000F04BF0021704730B54FF48064DE
:1044A80004F1320410F0004548BF40424FF00001CB
:1044B8003EE700BF42004FEAE2014FEA31014FEA0E
:1044C80002701FBF12F07F4393F07F4F81F060515D
:1044D800704792F0000F14BF93F07F4F704730B5CC
:1044E8004FF4607401F0004521F0004120E700BF5F
:1044F80050EA010208BF704730B54FF000050AE0E6
:1045080050EA010208BF704730B511F0004502D5E6
:10451800404261EB41014FF4806404F132045FEAE8
:10452800915C3FF4DCAE4FF003025FEADC0C18BF8D
:1045380003325FEADC0C18BF033202EBDC02C2F183
:10454800200300FA03FC20FA02F001FA03FE40EA15
:104558000E0021FA02F11444C1E600BF70B54FF015
:10456800FF0C4CF4E06C1CEA11541DBF1CEA1355F7
:1045780094EA0C0F95EA0C0F00F0DEF82C4481EA5F
:10458800030621EA4C5123EA4C5350EA013518BF7F
:1045980052EA033541F4801143F4801338D0A0FB6C
:1045A80002CE4FF00005E1FB02E506F00042E0FB19
:1045B80003E54FF00006E1FB03569CF0000F18BF1F
:1045C8004EF0010EA4F1FF04B6F5007F64F54074C7
:1045D80004D25FEA4E0E6D4146EB060642EAC6215A
:1045E80041EA55514FEAC52040EA5E504FEACE2EC7
:1045F800B4F1FD0C88BFBCF5E06F1ED8BEF1004FCA
:1046080008BF5FEA500E50F1000041EB045170BD45
:1046180006F0004646EA010140EA020081EA030189
:10462800B4EB5C04C2BFD4EB0C0541EA045170BD85
:1046380041F480114FF0000E013C00F3AB8014F1FF
:10464800360FDEBF002001F0004170BDC4F1000448
:10465800203C35DA0C341BDC04F11404C4F12005C9
:1046680000FA05F320FA04F001FA05F240EA020024
:1046780001F0004221F0004110EBD37021FA04F65A
:1046880042EB06015EEA430E08BF20EAD37070BD14
:10469800C4F10C04C4F1200500FA04F320FA05F073
:1046A80001FA04F240EA020001F0004110EBD37075
:1046B80041F100015EEA430E08BF20EAD37070BDE5
:1046C800C4F1200500FA05F24EEA020E20FA04F3BE
:1046D80001FA05F243EA020321FA04F001F000416D
:1046E80021FA04F220EA020000EBD3705EEA430EDE
:1046F80008BF20EAD37070BD94F0000F0FD101F00D
:104708000046400041EB010111F4801F08BF013C45
:10471800F7D041EA060195F0000F18BF704703F083
:104728000046520043EB030313F4801F08BF013D0A
:10473800F7D043EA0603704794EA0C0F0CEA1355C6
:1047480018BF95EA0C0F0CD050EA410618BF52EA80
:104758004306D1D181EA030101F000414FF0000086
:1047680070BD50EA410606BF1046194652EA430694
:1047780019D094EA0C0F02D150EA013613D195EA08
:104788000C0F05D152EA03361CBF104619460AD150
:1047980081EA030101F0004141F0FE4141F470015A
:1047A8004FF0000070BD41F0FE4141F4780170BD4A
:1047B80070B54FF0FF0C4CF4E06C1CEA11541DBFAF
:1047C8001CEA135594EA0C0F95EA0C0F00F0A7F8B1
:1047D800A4EB050481EA030E52EA03354FEA0131DE
:1047E80000F088804FEA03334FF0805545EA1313F1
:1047F80043EA12634FEA022245EA111545EA1065B9
:104808004FEA00260EF000419D4208BF964244F14F
:10481800FD0404F5407402D25B084FEA3202B61A6E
:1048280065EB03055B084FEA32024FF480104FF442
:10483800002CB6EB020E75EB030E22BFB61A7546B6
:1048480040EA0C005B084FEA3202B6EB020E75EB49
:10485800030E22BFB61A754640EA5C005B084FEAB1
:104868003202B6EB020E75EB030E22BFB61A75467E
:1048780040EA9C005B084FEA3202B6EB020E75EB89
:10488800030E22BFB61A754640EADC0055EA060E4A
:1048980018D04FEA051545EA16754FEA06164FEA8D
:1048A800C30343EA52734FEAC2025FEA1C1CC0D139
:1048B80011F4801F0BD141EA00014FF000004FF0C6
:1048C800004CB6E711F4801F04BF01430020B4F187
:1048D800FD0C88BFBCF5E06F3FF6AFAEB5EB030C3F
:1048E80004BFB6EB020C5FEA500C50F1000041EB3C
:1048F800045170BD0EF0004E4EEA113114EB5C0409
:10490800C2BFD4EB0C0541EA045170BD41F48011DB
:104918004FF0000E013C90E645EA060E8DE60CEAE3
:10492800135594EA0C0F08BF95EA0C0F3FF43BAF00
:1049380094EA0C0F0AD150EA01347FF434AF95EAB7
:104948000C0F7FF425AF104619462CE795EA0C0F9B
:1049580006D152EA03353FF4FDAE1046194622E768
:1049680050EA410618BF52EA43067FF4C5AE50EA42
:1049780041047FF40DAF52EA43057FF4EBAE12E732
:104988004FF0FF3C06E000BF4FF0010C02E000BF13
:104998004FF0010C4DF804CD4FEA410C7FEA6C5CF6
:1049A8004FEA430C18BF7FEA6C5C1BD001B050EA99
:1049B800410C0CBF52EA430C91EA030F02BF90EA84
:1049C800020F0020704710F1000F91EA030F58BF43
:1049D800994208BF90422CBFD8176FEAE37040F0A5
:1049E800010070474FEA410C7FEA6C5C02D150EA43
:1049F800013C07D14FEA430C7FEA6C5CD6D152EAFE
:104A0800033CD3D05DF8040B704700BF84461046C2
:104A180062468C461946634600E000BF01B5FFF7C1
:104A2800B7FF002848BF10F1000F01BD4DF808ED91
:104A3800FFF7F4FF0CBF012000205DF808FB00BF62
:104A48004DF808EDFFF7EAFF34BF012000205DF8BC
:104A580008FB00BF4DF808EDFFF7E0FF94BF012009
:104A680000205DF808FB00BF4DF808EDFFF7CEFF0A
:104A780094BF012000205DF808FB00BF4DF808ED49
:104A8800FFF7C4FF34BF012000205DF808FB00BF1A
:104A98004FEA410C7FEA6C5C02D150EA013C0AD132
:104AA8004FEA430C7FEA6C5C02D152EA033C02D124
:104AB8004FF0000070474FF0010070474FEA410285
:104AC80012F5001215D211D56FF47873B3EB625258
:104AD80012D94FEAC12343F0004343EA505311F07F
:104AE800004F23FA02F018BF404270474FF0000011
:104AF800704750EA013005D111F0004008BF6FF04F
:104B0800004070474FF00000704700BF4A0011D2C4
:104B180012F5001211D20DD56FF47873B3EB62520F
:104B28000ED44FEAC12343F0004343EA505323FA1B
:104B380002F070474FF00000704750EA013002D190
:104B48004FF0FF3070474FF0000070474FEA4102C6
:104B5800B2F1E04324BFB3F5001CDCF1FE5C0DD9D3
:104B680001F0004C4FEAC0024CEA5070B2F1004F1D
:104B780040EB830008BF20F00100704711F0804F20
:104B880021D113F13872BCBF01F00040704741F4E5
:104B980080114FEA5252C2F11802C2F1200C10FAE9
:104BA8000CF320FA02F018BF40F001004FEAC123CD
:104BB8004FEAD32303FA0CFC40EA0C0023FA02F371
:104BC8004FEA4303CCE77FEA625307D150EA013347
:104BD8001EBF4FF0FE4040F44000704701F0004017
:104BE80040F0FE4040F40000704700BF002103E0A1
:104BF8000B4B5B58435004310A480B4B42189A42FE
:104C0800F6D30A4A02E0002313600432084B9A42A2
:104C1800F9D300F00FF801F099FE00F01FF9FEE754
:104C280084AA000800000020E4000020E40000201E
:104C38007C010020384B82B01A6842F001021A60E9
:104C48005968364A0A405A601A6822F0847222F477
:104C580080321A601A6822F480221A605A6822F494
:104C6800FE025A604FF41F029A60002200920192DD
:104C78001A6842F480321A601A6802F4003201920B
:104C8800009A01320092019A1AB9009AB2F5A06FFF
:104C9800F2D11A6812F4003218BF01220192019A67
:104CA800012A05D01E4B4FF000629A6002B070478F
:104CB8001C4A116841F010011160116821F00301CC
:104CC8001160116841F0020111605A685A605A680F
:104CD8005A605A6842F480625A605A6822F47C1218
:104CE8005A605A6842F4E8125A601A6842F08072B0
:104CF8001A601968084A8901FBD5516821F0030137
:104D08005160516841F0020151605A6802F00C028A
:104D1800082AFAD1C6E700BF001002400000FFF8D9
:104D280000ED00E00020024040F0BF60024B40F47C
:104D38000030D860704700BF00ED00E0C27810B5C1
:104D480003780AB3164A03F16043D1684278C9432D
:104D5800C1F30221C1F1040402FA04F40F22CA408B
:104D6800817803F561430A4022431201D2B283F8E5
:104D7800002303780122590903F01F0302FA03F301
:104D8800084A42F8213010BD5A09012103F01F03D7
:104D980001FA03F30349203241F8223010BD00BF65
:104DA80000ED00E000E100E021F0604121F07F012A
:104DB800014B08439860704700ED00E008B50A4BC6
:104DC8001A680AB9094A1A6018686B460144994278
:104DD80006D901F0B5FD0C2303604FF0FF3008BD84
:104DE800014B196008BD00BF0001002080010020B0
:104DF80008B500F0E9FD4FF4804000F037FE00F000
:104E080041FE00F071FF00F039FF00F0A5FE00F050
:104E1800D3FF01F051FC01F013F901F061FC01F03E
:104E280033FD0021EF2000F0ADFD01F06BFD094BD3
:104E38005B7B0BB101F0CCFB0721074801F0B4FC08
:104E48004FF4487001F03EF8BDE808404FF47A701E
:104E580000F075BF4801002096A3000808B5FFF7C9
:104E6800C7FF00F081FF01F011F901F09FFA32202D
:104E780001F028F8F5E7000008B5144B984208D16E
:104E880001214FF4007000F0A3FB00214FF40070E3
:104E980016E00F4B984208D101214FF4806000F0D2
:104EA80097FB00214FF480600AE00A4B98420BD12F
:104EB80001214FF4004000F08BFB00214FF400402B
:104EC800BDE8084000F084BB08BD00BF00240140D5
:104ED80000280140003C0140436810B523F47022CB
:104EE8000B6822F4807213430A7943EA0223436071
:104EF800CA688B6884681A43084B234013434A796D
:104F080043EA42038360C36A23F470020B7C013BCB
:104F1800DBB242EA0353C36210BD00BFFDF7F1FFE5
:104F2800836811B143F0010301E023F001038360BA
:104F38007047836811B143F4807301E023F48073F0
:104F480083607047836843F0080383607047806814
:104F5800C0F3C0007047836811B143F4A00301E0B7
:104F680023F4A00383607047092970B50DD9A1F116
:104F78000A04C66804EB44040725A54026EA05058B
:104F880003FA04F42C43C4600AE0066901EB410407
:104F98000725A54026EA050503FA04F42C43046115
:104FA800062A0CD8013A446B02EB82021F23934075
:104FB80024EA030301FA02F21A43426370BD0C2A81
:104FC8000CD8073A046B02EB82021F23934024EAB1
:104FD800030301FA02F21A43026370BD0D3AC46A70
:104FE80002EB82021F23934024EA030301FA02F230
:104FF8001A43C26270BDC06C80B270474FF6FE7330
:105008000268134003600023036043608360C36049
:10501800284B984201D1284A27E0284B984201D1D1
:10502800254A2AE0264B984201D1234A2DE0254BF8
:10503800984201D1204A30E0234B984201D11E4AC0
:1050480033E0224B984204D11B4A536843F470035F
:105058002EE01F4B984204D1174A536843F07063FF
:1050680026E01C4B984204D11B4A536843F00F03B7
:105078001EE01A4B984204D1174A536843F0F003D4
:1050880016E0174B984204D1134A536843F47063EF
:105098000EE0144B984204D10F4A536843F470430E
:1050A80006E0114B984204D10B4A536843F470232D
:1050B8005360704708000240000002401C00024094
:1050C8003000024044000240580002406C00024098
:1050D8008000024008040240000402401C04024010
:1050E8003004024044040240580402400A6A10B5E1
:1050F8008C68036814430A6923F4FF4314434A691C
:1051080023F0700314438A691443CA6914434A6A32
:1051180014438A6A224313430360CB6843600B68D5
:1051280083604B68C36010BD19B1036843F0010385
:1051380003E04FF6FE7302681340036070470000F7
:10514800827970B50168037942B3CE43184A03F1F6
:105158008043156803F58233354015605468344040
:1051680054601C682143196001689468CD432C4041
:105178009460D3682B40D3604379102B06D1936891
:105188000B439360D3681943D16070BD03F180432A
:1051980003F582331A681143196070BD03F1804327
:1051A80003F582331A6822EA01021A6070BD00BF53
:1051B80000040140054B1A685B69034004D00242B1
:1051C80014BF0120002070471846704700040140B2
:1051D800014B5861704700BF00040140034A13683F
:1051E80003F0380318431060704700BF00200240E6
:1051F800044B1A6822F010021A601A6810431860EB
:10520800704700BF00200240034B044A5A6002F175
:1052180088325A60704700BF00200240230167456A
:10522800FFF7F2BF014BD860704700BF0020024073
:10523800084BDA68D10709D4DA68520708D4DB6862
:1052480013F0100F14BF032004207047012070478B
:10525800022070470020024010B50446FFF7E8FF1F
:10526800012806D11CB1FFF7E3FF013CF8E7052050
:1052780010BD002C08BF052010BD000070B5054604
:105288004FF400500E46FFF7E7FF04280ED1084CF4
:105298004FF40050236943F0010323612E80FFF788
:1052A800DBFF41F6FE7322691340236170BD00BF26
:1052B8000020024038B505464FF43020FFF7CCFFF8
:1052C800042812D1094C4FF43020236943F002031B
:1052D80023616561236943F040032361FFF7BCFF45
:1052E80041F6FD7322691340236138BD0020024056
:1052F800CA782DE9F041D40648BF8C780E8802F0B0
:105308000F0348BF234316F0FF0F1ED00168002487
:105318004FF0010E4FF00F0C0EFA04F737EA0605AE
:105328000FD1A5000CFA05F821EA080103FA05F5E2
:10533800282A41EA050101D1476102E0482A08BF4D
:1053480007610134082CE7D10160FF2E20D941689C
:1053580000244FF0010E4FF00F0C04F108050EFA6F
:1053680005F535EA06070FD1A7000CFA07F821EA78
:10537800080103FA07F7282A41EA070101D1456124
:1053880002E0482A08BF05610134082CE5D14160D4
:10539800BDE8F0818368194214BF012000207047DE
:1053A80001617047416170470028164A30B500F422
:1053B8004015B4BFD3695368B5F5401F84B206D110
:1053C800556823F0706325F0706555600EE0C202E1
:1053D80055BF420D03221201C0F303454CBFAA403A
:1053E80004FA02F223EA020343F0706319B1420D92
:1053F800120194402343034A0028B4BFD361536089
:1054080030BD00BF0000014001F0030301F0FC01C2
:1054180001F1804101F5803110B59B008C680F22A5
:105428009A4024EA02028A608A6898401043886099
:1054380010BD0000014B1860704700BF00300040ED
:10544800014B5860704700BF00300040014B986026
:10545800704700BF003000404AF6AA22014B1A608C
:10546800704700BF003000404CF6CC42014B1A6038
:10547800704700BF003000400D4B1A6842F001022F
:105488001A6059680B4A0A405A601A6822F08472F6
:1054980022F480321A601A6822F480221A605A684C
:1054A80022F4FE025A604FF41F029A60704700BF50
:1054B800001002400000FFF8014B1860704700BF61
:1054C80000004242014B1860704700BF6000424232
:1054D800034A536823F0030318435060704700BF22
:1054E80000100240024B586800F00C00704700BFE3
:1054F80000100240014B1860704700BFD8004242BC
:105508001C4A10B5536803F00C03042B01D0082B78
:1055180001D0194B0EE053685168C3F38343CC03A1
:1055280003F1020302D55168890301D5134900E04C
:1055380011494B4303605368114CC3F30313E15CF7
:105548000368CB4043605168C1F30221615C23FAD0
:1055580001F181605168C1F3C221615CCB40C36035
:1055680052680849C2F381328A5CB3FBF2F30361E3
:1055780010BD00BF0010024000127A0000093D0073
:105588000400002000000020044B5A6909B11043B0
:1055980001E022EA00005861704700BF0010024095
:1055A800044B9A6909B1104301E022EA00009861AE
:1055B800704700BF00100240044BDA6909B110437C
:1055C80001E022EA0000D861704700BF00100240E5
:1055D800044BDA6809B1104301E022EA0000D86000
:1055E800704700BF001002404209012A074B01D151
:1055F8001B6803E0022A0CBF1B6A5B6A00F01F00ED
:1056080023FA00F000F00100704700BF00100240CC
:10561800224A038890429BB212D002F5006290425F
:105628000ED0B0F1804F0BD0A2F59832904207D03F
:1056380002F58062904203D002F58062904203D165
:105648004A8823F070031343154A904208D002F5A4
:10565800806290421FBF23F44073CA889BB21343F1
:1056680003808B8883850B8803850C4B98420FD069
:1056780003F5006398420BD003F54063984207D0C6
:1056880003F58063984203D003F58063984201D103
:105698000B7A038601238382704700BF002C0140E8
:1056A80000100040038819B19BB243F0010303E0E6
:1056B80023F001031B041B0C0380704783899BB2F2
:1056C8000AB1194301E023EA010181817047FFF71C
:1056D800F5BF038819B19BB243F0800303E023F0C0
:1056E80080031B041B0C03807047C94389B20182E5
:1056F8007047000070B586B00446868801A80D463C
:10570800FFF7FEFE039A2E4826F03F06B2FBF0F0A4
:105718003604360C81B20E43A6802388294E23F026
:1057280001031B041B0C23802B68B3420AD85B00BF
:10573800B2FBF3F301319BB2032B89B298BF042368
:10574800218423E04BF6FF71EE888E421BBF19219E
:105758004B4303EB4303B2FBF3F30BBFB2FBF3F38F
:105768009BB29BB243F48043C3F30B020AB943F0E4
:1057780001034FF4967101FB00F24FF47A7192FB2A
:10578800F1F2013292B243F400432284A3832388C6
:10579800A9889BB243F00103238023886A8923F4F4
:1057A800816323F002031B040A431B0C13439BB2BF
:1057B8002380AA892B8913439BB2238106B070BD2D
:1057C80040420F00A0860100038819B19BB243F044
:1057D800010303E023F001031B041B0C0380704743
:1057E800038819B19BB243F4807303E023F48073F8
:1057F8001B041B0C03807047038819B19BB243F448
:10580800007303E023F400731B041B0C0380704730
:105818000182704712B141F0010101E001F0FE017F
:1058280089B201827047838A008B9BB243EA0043A6
:1058380021F07F4203EA0200431A58425841704758
:1058480082B00023009301930B0F01900093009BFB
:1058580021F07F4113B1019B143302E0019B090C35
:1058680018330193019B1B68194214BF01200020C3
:1058780002B0704738B50A2500240648FFF7BBFB7D
:10588800013D204415F0FF0584B2F6D19020B4FB09
:10589800F0F038BD00280140F8B51A4C00232668FE
:1058A8002360194B10225A61052000F00BFB1749A1
:1058B80009220B8808469BB21D461F460188013AFB
:1058C80089B28F4238BF0F468D4228BF0D4612F06D
:1058D800FF020B44F2D10E48DB1B02780D495B1B1B
:1058E800DB0841F82230013202F00302027091E82D
:1058F800090018448B6826601844CB68184440F3A4
:105908008F00F8BD30010020000C01406801002024
:105918002C01002008010020174930B54B880846A3
:105928009BB21C461D4609224188013A89B28D4224
:1059380038BF0D468C4228BF0C4612F0FF020B44BC
:10594800F2D10E485B1B02780D491B1BDB0841F89E
:105958002230013202F00302027091E80900184473
:105968008B681844CB68184440F6E44380085843D1
:10597800000BA0F5FA7030BD68010020040100207A
:105988001C01002038B508B10C4B18800C4D99B19A
:10599800FFF782FF0446FFF7BFFF40F2263250436D
:1059A8004FF47A7303FB0404044B06481B8800FB7E
:1059B800034090FBF2F02880288838BD1A010020A7
:1059C8001801002018FCFFFF7FB5FFF755FD1020D8
:1059D800FFF70EFC0120FFF701FC204B204A596815
:1059E80001200A435A601A6842F080721A60FFF771
:1059F80063FD0120FFF766FD3920FFF7F5FD00285C
:105A0800FAD00220FFF764FDFFF76CFD0828FBD1F0
:105A180001211720FFF7B8FD012140F20C60FFF7C4
:105A2800BFFD01210320FFF7C7FD0120FFF762FD3D
:105A380001A8FFF765FD029B4FF47A72B3FBF2F3FE
:105A4800084A013B5360084BF02183F823100023D8
:105A580093600723136007B05DF804FB0010024051
:105A68000A84680010E000E000ED00E008B5014697
:105A78004FF00060FFF798F9BDE808404FF4A060C8
:105A8800FFF752B9F7B501210920FFF789FD2E4E1E
:105A980001212E48FFF788FC01212D48FFF784FCDF
:105AA8000025802301A930461024ADF804308DF874
:105AB80007500327FFF71CFC4FF4807301A93046F9
:105AC800ADF804308DF807408DF80670FFF710FC2C
:105AD800ADF804408DF807401E4C01A920468DF80A
:105AE8000670FFF705FC012301A92046ADF8043034
:105AF8008DF80750FFF7FCFB022301A92046ADF8FB
:105B080004308DF80750FFF7F3FB48254FF4107366
:105B180001A93046ADF804308DF80750FFF7E8FBCF
:105B2800202301A92046ADF804308DF80750FFF76F
:105B3800DFFB082301A92046ADF804308DF8075093
:105B4800FFF7D6FB03B0F0BD0008014000013000AC
:105B580000023000000C0140F0B5434891B0FFF757
:105B68004DFA424B00250593414B022606938023AC
:105B78000A934FF480730B934FF480630C932023A4
:105B88000D9305A94FF4005337480E9307950896CF
:105B980009950F95FFF7AAFA01213348FFF7C4FAD0
:105BA8003448FFF769F9012469464FF46027314802
:105BB8008DF804408DF805400095029703958DF8FF
:105BC8001060FFF789F92C48FFF756F969462A480B
:105BD8008DF804408DF805408DF810400095029727
:105BE8000395FFF779F90723194632462148FFF74D
:105BF800BBF92246072308211E48FFF7B5F92246BC
:105C0800052309211C48FFF7AFF921461948FFF77A
:105C180090F921461748FFF783F921461648FFF700
:105C28007FF91448FFF78EF94AF201041148FFF78B
:105C38008EF910B1013CF9D113E00F48FFF782F952
:105C48004AF201040C48FFF782F910B1013CF9D17E
:105C580007E001210748FFF77EF901210648FFF711
:105C68007AF911B0F0BD00BF080002404C24014091
:105C780068010020002401400028014030B54FF49D
:105C8800E06085B0FFF750F8164C2F23ADF80430CC
:105C98003123ADF8083000254FF4807301A9204660
:105CA800ADF80A30ADF80650FFF7B2FC20460121E6
:105CB800FFF70FFD012211462046FFF708FD0121DD
:105CC8002046FFF7EFFC1D238DF8003068460123BE
:105CD8008DF801508DF802308DF80330FFF72EF85B
:105CE80005B030BD000400401FB50F210020FFF7AC
:105CF8008BFB05210120FFF787FB03210120FFF71C
:105D080083FB4FF41A73029300238DF80C3001249F
:105D1800102302A88DF80D308DF80E40FFF710FA09
:105D280017238DF8043001A80F238DF805308DF85E
:105D380006308DF80740FFF701F804B010BD10B524
:105D4800044645F25550FFF775FB0320FFF778FB33
:105D58000A206043C0F3CF00FFF778FBFFF77CFB16
:105D6800BDE81040FFF780BBFFF776BB08B50121FF
:105D78000D48FFF7BAFC0D4B0D4A196879B119683F
:105D88000139196010780B4B102108B1596100E0F6
:105D980019611378B3FA83F35B09137008BD054BD7
:105DA80010205861117008BD000400403001002027
:105DB80034010020000C014010B5C02386B0ADF8B6
:105DC800043003238DF8063001A91C2310488DF8F0
:105DD8000730FFF78DFA0023ADF80C304BF6FF7350
:105DE800ADF80E304FF48063ADF812304FF48043B5
:105DF800ADF81430074C084B06A941F8103D204671
:105E0800FFF778FC01212046FFF7DEFC06B010BD45
:105E1800000C014000540040801A060070B504468A
:105E28000D4616464FF400312148FFF709FD0028BA
:105E3800F8D101211E48FFF7D3FC1E491C48FFF783
:105E4800F2FC0028F9D07100002201F0FE01184888
:105E5800FFF7E0FC18491648FFF7E5FC0028F9D0E1
:105E680021781348FFF7D4FC013DEDB20135661CDB
:105E78002C44A6420BD011490D48FFF7E1FC00283D
:105E8800F9D016F8011B0A48FFF7C2FCF1E70B49E5
:105E98000748FFF7D5FC0028F9D001210448FFF78F
:105EA800ABFC07490248FFF7CBFC0028F9D170BDCD
:105EB80000540040010003008200070004000010A5
:105EC80010000010034B1A6810441A688242FCD371
:105ED800704700BF700100207047FEE7FEE7FEE74D
:105EE800FEE70000024A136801331360704700BFE1
:105EF80070010020FFF73ABF08B54FF40070FFF7B4
:105F080059F9C0B14FF400712348FFF743FA234A07
:105F1800012813884FF4007005BF23F001031B0408
:105F28009BB21B0C18BF43F0010313801C4B1A686B
:105F38001C4B1A602AE04020FFF73CF9B8B1402119
:105F48001548FFF727FA154A012813884FF0400033
:105F580005BF23F002031B049BB21B0C18BF43F0C0
:105F6800020313800E4B1A680E4B1A600EE00820CD
:105F7800FFF720F908B1082008E02020FFF71AF9F8
:105F880040B1074B20201A68074B1A60BDE808404B
:105F9800FFF71EB908BD00BF0008014074010020CA
:105FA80070010020780100206C01002070477047C4
:105FB8007047704770477047704770477047704721
:105FC8007047704770477047704770477047704711
:105FD8007047704770477047704770477047704701
:105FE80070477047704770477047704770477047F1
:105FF80070477047704770477047704770477047E1
:1060080070477047704770477047704770477047D0
:1060180070477047704770477047704770477047C0
:1060280070477047704707B51D228DF804008DF83A
:10603800051001A80221FFF7F1FE03B05DF804FB8B
:1060480008B500212B20FFF7EEFF40212B20FFF79A
:10605800EAFF0220FFF736FF78211520FFF7E3FF5C
:106068000F211720FFF7DFFF01211820FFF7DBFFC3
:1060780004212D20FFF7D7FF04212E20FFF7D3FF9F
:10608800BDE8084019212A20FFF7CDBF2DE9F041CE
:106098009C4F9D4C9D4D3B88226829689C4E521A06
:1060A800C72A32789BB28CBFDBB20023062A00F2E3
:1060B8006081DFE812F00700260065008A00ED0025
:1060C8001001540120682C688F49001BB0F57A7FB5
:1060D8008E4A40F24E8113F0010006D0012333703E
:1060E8000B6813600B68136014E09C0740F1418152
:1060F800032333700B6813600B6813603880BDE8A6
:10610800F08113F0010209D00223337023682B6059
:1061180023682B6000233B80BDE8F0819B0701D5F5
:106128000523BDE07B4BDA7A98468AB1587A4EF659
:1061380060237949434322680968521A9A4207D969
:10614800714A12682968521A934201D204230FE156
:10615800FFF790FB0A23B0FBF3F098F80A3080B2FF
:1061680083420AD90623337023682B6023682B6087
:1061780000233B802268694B1A60B8F80000A4E04D
:10618800DF0709D52368634A2B601368B3F57A7F64
:1061980040F2EF80643B0CE013F0020F23680BD051
:1061A80041F293115B4A2B6013688B4200F2E18045
:1061B80064331360BDE8F0812A689B1A40F6B83250
:1061C800934240F2D680012312E022682C684E48A0
:1061D800121BB2F5967F4D49C0F0CB80DC0710D575
:1061E80003684F4A0B601378052B06D10023137000
:1061F8003370BDE8F04100F051BB01331370BDE8C6
:10620800F0819A0740F1B58003680B60444B1B7816
:10621800052B00F2AE80DFE803F0030D19232B33C2
:106228003C4A937A0133DBB2182B88BF0A23937256
:10623800BDE8F08140F6B831364A536864338B4282
:1062480088BF4FF47A735360BDE8F081314A537ABE
:106258000133DBB21E2B88BF01235372BDE8F081E6
:106268002C4AD37AB3FA83F35B09D372BDE8F08181
:10627800284A137BB3FA83F35B091373BDE8F081F3
:10628800244A537BB3FA83F35B095373BDE8F08167
:1062980013F0010201D0012337E79B0708D501233A
:1062A800337023682B6023682B603A80BDE8F08147
:1062B800184BDA7A42B1184922680968521AB2F5BD
:1062C8007A7F01D2012353E0988800F0B5FA154B84
:1062D8001860BDE8F0814FF00008124B01214046DC
:1062E800C3F80080FFF74EFBB0F5FA7F1CD2236895
:1062F80086F800802B6023682B60A7F80080BDE833
:10630800F08100BF74010020700100207801002096
:1063180059010020480100206C01002038010020AC
:10632800580100203001002021682868124A091A03
:10633800C829124B1DD911681868091AB1F5FA6FE6
:1063480017D2398889B2A1B1116886F8008019601E
:1063580012681A600A4BA3F80080BDE8F081094A68
:10636800236812689B1A40F6B832934201D9002379
:106378003370BDE8F08100BF700100207801002073
:106388007401002038010020074B1B7B3BB100EB58
:10639800C00000F5C860052390FBF3F080B20A2323
:1063A800B0FBF3F000F025BA48010020002110B539
:1063B8000846FFF7E7FA5F4B04461B78062B00F206
:1063C800B780DFE803F0041B3D589FA5AF005A498A
:1063D8005A4A0B6812689B1A594A934209D90B68A2
:1063E800584909685B1A934203D9BDE8104000F088
:1063F800DDB800F0C9F80821534895E0534B1A68F6
:1064080012B90521432006E01B680521B3F5FA7F80
:1064180034BF2020482000F081F900212046FFF7F2
:10642800B3FF0321202000F079F90421202000F097
:1064380075F90621202000F071F90721202016E0C7
:106448000021202000F06AF901213C2000F066F9C3
:106458003F4B02211888FFF797FF0521202000F005
:106468005DF90621202000F059F907213E20BDE8FA
:10647800104000F053B9374B1B78052B58D8DFE88C
:1064880003F0030F1E2931390521334800F08CF938
:106498002F4B0521987A00F095F907215620E6E759
:1064A80005212E4800F080F9BDE81040284B0A204D
:1064B8005B680521B3FBF0F080B200F09AB90621C1
:1064C800274800F071F9BDE81040214B0621587AA1
:1064D80000F078B91E4B0821DB7A0BB1214823E084
:1064E800214821E01A4B08211B7B0BB11F481BE0F8
:1064F8001F4819E0164B08215B7B0BB11D4813E0C0
:106508001D4811E003211D4800F04EF9032104E065
:1065180003211B4800F048F904212046BDE810403B
:10652800FFF732BF17480821BDE8104000F03CB91A
:1065380010BD00BF59010020700100206C0100202F
:10654800E0930400780100209EA300083001002099
:106558004801002058010020A7A30008ADA30008A7
:10656800B3A30008BAA30008C3A30008CCA300087B
:10657800D5A30008DEA30008E7A30008F0A30008DD
:10658800F4A30008F9A3000807B5074B3C221868D4
:106598009B88009006216846ADF80430FFF73EFC62
:1065A80003B05DF804FB00BF80A3000807B5074BE4
:1065B8003C2253F8060F06219B8800906846ADF8E8
:1065C8000430FFF72BFC03B05DF804FB80A3000840
:1065D80007B50B4B01A81B883C220221ADF80430FB
:1065E800FFF71CFCA1233C22022101A88DF80530ED
:1065F800FFF714FC034B00221A7003B05DF804FB8C
:106608008CA300081400002010B54023A0B001306E
:106618000C468DF80030C1B201238B4205DA14F81C
:10662800012B0DF803200133F7E768463C22FFF7FA
:10663800F5FB204620B010BD13B56B4604460A464C
:106648000949503A51F80E0F496803C3074B8DF8B2
:10665800012018783C2220448DF80500082168465E
:10666800FFF7DCFB02B010BD80A300081400002077
:10667800F8B5064617460B4411F0070FDDB24FEA8E
:10668800D1040CBFE4B2013415F0070F4FEAD50569
:106698000CBFEDB20135AC420BD221463046FFF7B4
:1066A800CBFF06993846FFF7AFFF01340690E4B2F6
:1066B800F1E70698F8BD000007B54FF48073ADF810
:1066C800043003238DF8063001A9102303488DF800
:1066D8000730FEF70DFE03B05DF804FB000C014027
:1066E80010B50C4C4FF480712046FEF75BFE02207B
:1066F800FFF7E8FB4FF480712046FEF751FE0220B9
:10670800FFF7E0FBBDE810403C222E210248FFF7CE
:1067180085BB00BF0008014015000020072907B508
:10672800034635D801EB4101A3F141028800192A3B
:10673800C0B203D8A3F13702182105E0A3F1300154
:10674800CAB2092A04D81822134B02FB013319E0F4
:10675800092B04D8104A182101FB032312E0202B2F
:106768000BD03C2B0BD03E2B0BD00B4A02F56A7199
:106778002E2B14BF13460B4604E0084B02E0084BCF
:1067880000E0084B00930C2210230021FFF770FF54
:1067980003B05DF804FB00BF02A4000862A700086C
:1067A8007AA7000892A7000870B50546044646185F
:1067B800611BB442C9B204D014F8010BFFF7AEFF55
:1067C800F6E770BDF8B50A25B0FBF5F40746E0B268
:1067D800B0FBF5F30E4605FB1300C0B2FFF79EFFB2
:1067E80005FB1470711CC9B2C0B2BDE8F840FFF7D0
:1067F80095BFF8B56423B0FBF3F30A240746B3FB4F
:10680800F4F004FB1030C0B20E46FFF787FFB7FB69
:10681800F4F5A8B2B0FBF4F304FB1300711CC9B281
:10682800C0B2FFF77BFF04FB1570B11CC9B2C0B240
:10683800BDE8F840FFF772BF38B5012104460020D3
:10684800FFF7A0F8221A0E4C12B263680D4D53439D
:1068580023EAE3712368A46853432A882880821AAC
:1068680012B204FB12334CF250329142D4BF5B187F
:106878009B1823EAE3739342A8BF1346184638BD12
:106888005C0100203C010020034B16200721022256
:1068980083E80700704700BF5C01002070B5FEF771
:1068A800BFFC3420FEF7BEFC0948FEF703FD0428B0
:1068B800FAD1074C074E084D04F17843A3F53F433E
:1068C8002046F15A0234FEF7D9FCAC42F4D170BD2F
:1068D80000BF00084801002010BF000840F2DC5249
:1068E800074B4FF448615A6001225A72DA720A2241
:1068F8009A7202221A72002219601A735A73704728
:106908004801002010B50A4B0A480B490B4A5C881D
:106918001A4402338B421452F8D1064B1B7A022BCD
:1069280005D0FFF7DBFFBDE81040FFF7B7BF10BD8C
:10693800FEBE0008480100200EBF00080241FFF714
:10694800014B1868704700BFA40000200E4B70B5BB
:106958001E460E4C0025E41AA410A54204D056F891
:10696800253098470135F8E703F0FAFC084B094C45
:106978001E46E41AA4100025A54204D056F8253076
:1069880098470135F8E770BD7CAA00087CAA000882
:106998007CAA000880AA000803460244934202D059
:1069A80003F8011BFAE770472DE9F04788B0149FF8
:1069B800002B1E461299B8BF03F1004327F02007A9
:1069C800B6BF1E4600232D23462F1446109DDDF822
:1069D8004CA00B7003D0452F03D1013501E00323F0
:1069E80000E0022307AA049206AA03928DE828046D
:1069F8002246334601F088FD472F804602D1119B7D
:106A0800DB0728D5462F08EB050911D198F8003087
:106A1800302B0AD10022002320463146FEF706F823
:106A280018B9C5F10105CAF80050DAF800309944E0
:106A38000022002320463146FDF7F8FF08B930222E
:106A480002E0CDF81C9006E0079B994503D9591C34
:106A580007911A70F8E74046079B159AC8EB03039D
:106A6800136008B0BDE8F087034673B50029B8BFC6
:106A7800494203F8022BB4BF2D222B220929427068
:106A88001ADD0DF1070216460A2591FBF5F405FB00
:106A98001411092C01F1300102F8011D2146F4DC22
:106AA8003031541E02F8011CB4421A460AD214F8B6
:106AB800012B03F8012BF7E71A463024214402F88A
:106AC800024B5970101A02B070BD00002DE9F04F4A
:106AD80091B00C46DDF8688016461F46054602F060
:106AE800C9FD036818460993FDF778FB00230E9348
:106AF800D8F800300A90073323F0070303F108029F
:106B080094F81890D4F800B0C8F80020D3E900230E
:106B1800C4E91223D4F84CA0D4F848802AF00043E2
:106B28000B934FF0FF32A74B40460B99FDF7B0FF90
:106B3800A0B94FF0FF32A34B40460B99FDF78AFFEF
:106B480060B90022002340465146FDF779FF10B195
:106B58002D2384F843309C4B9C4A0AE04246534616
:106B680040465146FDF794FF002800F09281984B6B
:106B7800984AB9F1470F8CBF904698460323236182
:106B88002BF0040323604FF0000A3DE0B9F1670FD2
:106B980000F08A81B9F1470F00F0868123600193E4
:106BA800636800210DF1330205900292009342467A
:106BB80053460691CDF81090CDF80CE02846FFF723
:106BC800F3FE09F0DF03472B804600F08481B9F11A
:106BD800650F0D9900F28D8101394A4604F1500084
:106BE8000D91FFF741FF0E9A82468318012A23610F
:106BF80000F37C812268D10700F178819DF8333059
:106C080013B12D2384F84330009733460FAA214649
:106C1800284600F09FF9013002D14FF0FF3096E18D
:106C280023685A0501D4236965E0B9F1650F40F27C
:106C3800D580D4E9120100220023FDF7F7FE78B3CE
:106C48000123654A31462846B8470130E5D00E9BF6
:106C58000D9A9A420BDB2368D80708D423689B0750
:106C680040F111814FF0000804F1190906E10A9B6F
:106C7800099A31462846B8470130CED04FF000086F
:106C880004F11A090E9B013B9845E7DA01234A46AD
:106C980031462846B8470130BFD008F10108F1E76E
:106CA8000D9B002B29DC01234B4A31462846B84767
:106CB8000130B2D00D9B23B90E9B13B92368D907B5
:106CC800CCD50A9B099A31462846B8470130A4D04A
:106CD8004FF0000904F11A0A0D9B5B42994509DA45
:106CE8000123524631462846B847013095D009F16C
:106CF8000109F1E70E9B4246A7E00E9AA36D9A425E
:106D0800A8BF1A46002A914606DC4FF0000A29EA75
:106D1800E97904F11A0B11E0134631464246284638
:106D2800B8470130F1D178E701235A463146284661
:106D3800B84701303FF471AF0AF1010AA36DC9EBFE
:106D480003029245F0DB08EB03090D9A0E9B9A4269
:106D58000FDB2368DA070CD40E9B0D9A9844C9EB15
:106D680008089B1A9845A8BF9846B8F1000F08DC98
:106D78000FE00A9B099A31462846B8470130EBD103
:106D88004BE743464A4631462846B84701303FF468
:106D980044AF4FF0000928EAE87804F11A0A09E03C
:106DA8000123524631462846B84701303FF435AFF3
:106DB80009F101090D9A0E9B9B1AC8EB030399452B
:106DC800EEDB4BE7FFFFEF7FC2A70008C6A700086E
:106DD800CAA70008CEA70008D2A700080E9A012A61
:106DE80001DCDB0738D50123424631462846B8473F
:106DF80001303FF412AF0A9B099A31462846B8473A
:106E080001303FF40AAFD4E9120100220023FDF754
:106E18000DFE20B14FF0000804F11A090EE00E9B98
:106E280008F10102013B19E001234A463146284690
:106E3800B84701303FF4F1AE08F101080E9B013B61
:106E48009845F1DB534604F1500231462846B847CD
:106E580001307FF403AFE0E642460123314628467D
:106E6800B8470130EED1D8E601234A4631462846D4
:106E7800B84701303FF4D1AE08F10108E3680F9A32
:106E88009B1A9845F0DBE0680F9B9842B8BF1846FC
:106E98005DE062680EA8531C0DF1340E4BF480635C
:106EA8007FF474AE062201E012B90122626075E631
:106EB800002106910DF133018DE80C002360059047
:106EC8004246CDF81090CDF80CE002915346284682
:106ED800FFF76AFD80460D9BD81C02DB626893426F
:106EE8001DDDA9F102095FFA89F970E60133236112
:106EF80084E6B9F1660F14D10029636807DD2161C2
:106F080013B92268D2071DD501330B4419E013B910
:106F18002268D00701D5023313E0012311E04FF0B6
:106F280067090D9B0E9A934205DB22682361D107FE
:106F380008D5013305E0002BD4BFC3F102030123B8
:106F4800134423610D9B4FF0000AA36556E611B068
:106F5800BDE8F08F2DE9F04791461F460A698B6816
:106F680006469342B8BF1346C9F8003091F843204B
:106F78000C46DDF8208012B10133C9F800302368CF
:106F8800990642BFD9F800300233C9F800302568A5
:106F980015F0060510D104F1190A07E0012352463D
:106FA80039463046C04701301AD00135E368D9F870
:106FB80000209B1A9D42F1DB94F84330226800338D
:106FC80018BF012392060FD5E118302081F843003D
:106FD8005A1C94F845102244023382F8431003E007
:106FE8004FF0FF30BDE8F08704F1430239463046E0
:106FF800C0470130F4D02268D9F80050E36802F0A5
:107008000602042A08BF5D1B2269A3680CBF25EA93
:10701800E57500259342C4BF9B1AED184FF000098F
:107028001A344D4509D00123224639463046C04717
:107038000130D5D009F10109F3E70020BDE8F08758
:107048002DE9F04317460A7E85B06E2A9846064613
:107058000C460C9B01F1430E00F0AE8011D8632A58
:1070680022D009D8002A00F0BB80582A40F0CA80F4
:1070780081F84520834955E0642A1ED0692A1CD02E
:10708800C0E0732A00F0B08009D86F2A2ED0702A89
:1070980040F0B8800A6842F020020A603EE0752A93
:1070A80024D0782A3AD0ADE01A6801F14205111DC2
:1070B8001960136884F84230A8E021681A6811F052
:1070C800800F02D0111D196008E011F0400F02F185
:1070D8000401196002D0B2F9003000E01368002BF7
:1070E8003CDA2D225B4284F8432037E021681A6895
:1070F80011F0800F02D0111D196007E011F0400F48
:1071080002F10401196001D0138800E01368227E9F
:107118005C496F2A14BF0A2208221BE078225A49C8
:1071280084F845202268186812F0800F00F10405E1
:107138001D6003D1550601D5038800E00368D00718
:1071480044BF42F0200222601BB9226822F02002CC
:1071580022601022002084F8430001E049490A22F5
:107168006568002DA56008DB206820F00400206019
:107178002BB9002D7DD175460CE0002B79D07546D2
:10718800B3FBF2F002FB1033CB5C05F8013D03467C
:107198000028F5D1082A0BD12368DA0708D5236916
:1071A80062689A42DEBF302305F8013C05F1FF35DD
:1071B800C5EB0E0323612EE008681A6810F0800FF3
:1071C800496903D0101D1860136808E010F0400FDB
:1071D80002F104001860136801D0198000E01960FA
:1071E80000232361754616E01A68111D1960156899
:1071F80000216268284602F049FA08B1401B606025
:10720800636804E004F1420584F842200123236105
:10721800002384F84330CDF800803B4603AA21467A
:107228003046FFF797FE013002D14FF0FF3026E0DD
:1072380023692A4639463046C0470130F5D02368CD
:107248009B0710D5002504F1190907E001234A46D8
:1072580039463046C0470130E7D00135E368039A24
:107268009B1A9D42F2DBE068039B9842B8BF184620
:1072780005E00B7804F1420584F842308AE705B04E
:10728800BDE8F083D4A70008E5A700082DE9F04F72
:107298009A468B6816465A1EB2F5AE7F88BF6FF4C1
:1072A800AE7287B082BF9B18019340F25D13884687
:1072B80096BF00238B6001930B684FF0000B43F4DB
:1072C800F06348F81C3B07460C4645465A46D946E3
:1072D800CDF810B0CDF80CB0CDF808B0A1680029F1
:1072E80000F0E58033681B78492B70D016D8392B0D
:1072F8000DD8312B40D22D2B46D002D82B2B43D082
:10730800D5E02E2B00F09280302B23D0CFE0452BF8
:1073180000F09580462B77D0412B0CE0652B00F0D0
:107328008E800AD8542B75D002D84E2B34D0BEE0AC
:10733800592B75D0612B46D0B9E06E2B2CD004D8D0
:10734800662B61D0692B42D0B1E0742B62D0792BC7
:1073580066D0ACE0206810F4807F0DD0019B20F04F
:107368008000206009F10109002B00F08780013BB3
:1073780001310193A16081E012EB0B0F40F097807F
:10738800216821F4C07105E02168080640F18F806A
:1073980021F0800121606FE06AB9B9F1000F0CD1CA
:1073A800216801F4E060B0F5E06F06D121F4F061E6
:1073B8002160012260E0022A5DD0BBF1010F1ED0DE
:1073C800BBF1040F1AE0012A71D1022254E0BBF18B
:1073D800000F0ED1B9F1000F6CD1216801F4E06003
:1073E800B0F5E06F6AD121F4F06121604FF0010B34
:1073F80042E0BBF1030F02D0BBF1050F57D10BF1EF
:10740800010B5FFA8BFB37E0BBF1020F4FD14FF056
:10741800030B31E0BBF1060F49D14FF0070B2BE00E
:10742800BBF1070F43D14FF0080B25E02168880511
:107438003DD521F420712160CDF808901CE0216829
:1074480001F4A060B0F5806F04D048052FD5B9F1DC
:10745800000F33D0880558BF029821F4F06158BF57
:10746800C0EB090041F4C0715CBF03900495216032
:107478004FF0000900E003222B700135A368013B9F
:10748800A3602369013323617368013B002B736098
:1074980003DD33680133336020E7D4F880313146A7
:1074A800384605929847059A00283FF417AFB9F176
:1074B800000F03D0236823F480732360013A012A64
:1074C8000ED845450AD9D4F87C31324615F8011D45
:1074D800384698472369013B2361F2E70126ADE06E
:1074E8000BF1FF33062B22D8BBF1020F12D9ABF1F7
:1074F800030B5FFA8BFBCBEB050B5D4517D0D4F87C
:107508007C31324615F8011D384698472369013BFE
:107518002361F2E74545E1D9D4F87C31324615F8C4
:10752800011D384698472369013B2361F2E7236828
:10753800DA052CD55B050CD54545CFD9D4F87C3177
:10754800324615F8011D384698472369013B2361E7
:10755800F2E715F8011C2369652903F1FF3305F1EA
:10756800FF3B23610DD045290BD0D4F87C3132463E
:1075780038469847236915F8021C013BA5F1020B10
:107588002361D4F87C313246384698475D462668F0
:1075980016F0100651D12E70236803F4C063B3F5BA
:1075A800806F05D1029BC3EB09035A4263B915E00A
:1075B800039B9BB104990A2332460131384600F0F7
:1075C8008FFE039B049DC21A04F26F139D4228BFCD
:1075D80004F5B7751B49284600F03AF800224146E1
:1075E800384600F07DF82268804612F0020F89467E
:1075F800DAF8003003D01A1DCAF8002006E012F0AD
:10760800040503F10402CAF8002003D01B68C3E98B
:1076180000890EE01F6802460B46FDF739FA18B1DB
:10762800284600F011F803E040464946FDF78EFA77
:107638003860E3680133E36000E00026304607B0B5
:10764800BDE8F08FF6A70008004870470000C07F2B
:107658000EB400B54FF402719CB0ADF814106FF081
:107668000041049107914FF6FF711DAB02900690FF
:10767800084853F8042BADF81610006802A90193C6
:1076880002F018FD029B00221A701CB05DF804EB92
:1076980003B07047A40000202DE9F0410F46904642
:1076A80002F0D2FA04460D46B8F1000F11D0C7F324
:1076B8000A53C3F16B03002B0BDD1B0503F17F5548
:1076C800002405F5401522462B46FCF747FFBDE888
:1076D800F08120462946BDE8F08100000000000046
:1076E8002DE9F04F82460C469DB000231392189363
:1076F8004FF000084FF000091791179B1A780D2AD0
:1077080005D8092A13D2002A00F0AD8112E02B2AED
:1077180004D02D2A04D0202A0CD108E0002200E051
:1077280001220C925A1C17925B782BB99BE101330A
:107738001793E2E700230C93179D2B78302B5CD12D
:107748006B78582B01D0782B4CD10C9BA84A01930D
:1077580018AB009317A919AB504601F0B8FC10F00C
:107768000706044600F08585062E05D1013500235D
:1077780017950C9300F07DBD189A3AB135211AA8D7
:1077880002F049FB1899504601F0CEFF062E22D888
:10779800DFE806F0040D08181D0D04004FF000097D
:1077A800C84618E0DDF86880DDF86C9013E01B9B94
:1077B800199A23F4801302F23342DDF8688043EA11
:1077C800025908E0DFF82C924FF0000803E06FF050
:1077D80000494FF0FF38210740F14B8549F0004937
:1077E80000F047BD179B5A1C17925B78302BF9D0D5
:1077F800002B00F03E85012300E000230593179B32
:107808000A22069300239B4602930493179D2E7821
:10781800A6F13003D9B2092911D8BBF1080FD5BF99
:107828000499029902FB013302FB013305F10105BA
:10783800D4BF049302930BF1010B1795E6E750466A
:1078480001F018FF0768504601F014FF0068FCF7C4
:10785800C5FC39460246284602F020FD074628B1F5
:10786800002033465D46024601465AE0504601F084
:1078780001FF0068FCF7B2FC179B1A1817921B5CF3
:10788800BBF1000F45D15846302B05D1179B01306D
:107898005A1C17925B78F7E7A3F13102082A46D8F9
:1078A800179A0692024600200546303B00F1010176
:1078B80029D00A44294605EB000C0A2661450FD059
:1078C800013101F1FF3EBEF1080F03DC049F77434D
:1078D8000497F3E71029DEBF029F77430297EDE78D
:1078E8002844082800F1010505DC04980A2101FB59
:1078F8000033049306E0102DDFBF02980A2101FB34
:10790800003302930021179B581C17905B78084698
:1079180002E05D4638463A46A3F130010929C4D948
:107928000121652B01D0452B4FD16DB904E0652BA2
:1079380040F0AD840022012128B9059B002B00F0FE
:107948009280054600E00025179C631C1793637816
:107958002B2B06D02D2B02D00026039606E0012300
:1079680000E000230393A31C1793A378A3F1300628
:10797800092E29D8302B04D1179B5E1C17965B78EB
:10798800F8E7A3F13106082E1FD8A3F1300E179B94
:107998001F46179B5E1C17965B78A3F1300CBCF151
:1079A800090F05D80A2606FB0E3EAEF1300EF0E7A9
:1079B800F61B082E44F61F6602DC7645A8BF7646FD
:1079C800039F1FB1764201E017940026002D52D183
:1079D800002840F04E84059A002A40F04A84002985
:1079E80041D14E2B20D007DC492B0AD03BE000BF09
:1079F80010A800080000F07F692B02D06E2B13D06E
:107A080031E0AA4917A801F093FD60B3179BA84974
:107A1800013B17A8179301F08BFD10B9179B013391
:107A28001793DFF8A8921AE0A24917A801F080FD81
:107A3800C8B1179B1B78282B0FD11AAA9E4917A8E3
:107A480001F089FD052808D11B9BDDF8688043F00B
:107A5800FF4949F4E00900F00CBCDFF874924FF0DC
:107A6800000800F006BC139B1794002B00F00C8450
:107A780000230C93FFE32C46BBF1000F08BFAB4675
:107A88000498102DA8BF1024B71AFCF7F1FC092C94
:107A98008046894613DD894B03EBC40353E912235F
:107AA800FCF75CFD804602988946FCF7E1FC02463B
:107AB8000B4640464946FCF79FFB804689460F2DFA
:107AC80033DC002F00F0D58322DD162F07DC7B4D39
:107AD800424605EBC7014B46D1E9000113E0C5F169
:107AE80025039F4221DC754CC5F10F0504EBC50148
:107AF8007D1B4246D1E900014B4604EBC504FCF767
:107B08002DFDD4E90023FCF729FD80468946B0E322
:107B180017F1160F09DB694D4046A5EBC703D3E9FA
:107B280000234946FCF744FEEFE72C1B3C44002C9D
:107B38005DDD14F00F010AD0604B424603EBC10132
:107B4800D1E900014B46FCF709FD8046894634F02F
:107B58000F0400F0C180B4F59A7F0FDD4FF0000BE1
:107B6800CDF808B0CDF814B0CDF810B02223CAF87B
:107B78000030DFF858914FF0000889E14046494647
:107B880000234F4E24110293012C0CDDE20704D58B
:107B9800D6E90023FCF7E2FC0123029A64100132C3
:107BA80002920836F0E70BB180468946444B029AA8
:107BB800A9F1547903EBC201D1E9000142464B46D1
:107BC800FCF7CCFC21F0004389460A461B0D3D49D1
:107BD8001B058B428046C1D8A1F580118B4286BF18
:107BE800DFF8F0904FF0FF3802F1547974E073D069
:107BF800644214F00F020AD0304B404603EBC20334
:107C08004946D3E90023FCF7D3FD80468946241171
:107C180062D01F2C08DD4FF0000BCDF808B0CDF86E
:107C280014B0CDF810B02CE14046494614F0100FBE
:107C38000CBF00236A23244E03930023002C09DD84
:107C4800E20704D5D6E90023FCF788FC0123641079
:107C58000836F3E70BB180468946039BEBB1C9F3BD
:107C68000A53C3F16B03002B494616DD1F2B0EDDAB
:107C7800342BDEBF203B4FF0FF3202FA03F34FF004
:107C88000008CCBF4FF05C7903EA010905E04FF02A
:107C9800FF3202FA03F303EA0808002200234046F1
:107CA8004946FCF7C3FE0028B5D117E0C7A700086E
:107CB80054A90008CFA70008FCA7000868A9000875
:107CC80040AA00080000A07C28A800080000F07F57
:107CD8000000F8FFFFFFEF7F00230393049B5A4641
:107CE800009306992B46504601F070FD0590002838
:107CF8003FF434AF002FC7F10003A8BF00230D9352
:107D08004FF0000B27EAE7731293CDF808B0059BF4
:107D18005046596801F0D3FC049000283FF426AF80
:107D2800059B0C301A6903F10C010232920001F034
:107D3800BBFC1AAB019319AB009342464B46504625
:107D4800CDE9088901F0F1FF189000283FF40EAF43
:107D58000121504601F0C5FD029000283FF406AF0E
:107D6800199B0399002BACBF0D9A129A1A9CACBFB1
:107D7800D618D21AA3EB01032344B14903F1FF3308
:107D8800ACBF129A0D9E8B42C4F1360480F28580F6
:107D9800C91A1F29C8BFAB4D4FF00107D4BF07FA56
:107DA80001F3ED1AA4EB0104D9BF0793002507FAE4
:107DB80005F507973719039BBE4214441C44334604
:107DC800A8BF3B46A342A8BF2346002BC2BFFF1A49
:107DD800E41AF61A0D9B002B63D1002F7ADC129B54
:107DE800002B40F08180002C00F38880002E00F3E7
:107DF8008F80049A1899504601F0C7FE83460028E0
:107E08003FF4B4AEC3680024C4600299069301F03D
:107E1800A0FEA04280F28B80069B002B40F00282DD
:107E2800B8F1000F40F0FE81C9F31303002B40F0B6
:107E3800F98129F000431B0D1B05B3F1D66F40F201
:107E4800F181DBF81430002B6CD0594601225046E2
:107E580001F02EFE0299834601F07BFE002840F3D4
:107E6800E18129F00043039A1B0D1B05002A00F04D
:107E78008D80B3F1D66F00F38980B3F15C7F00F396
:107E8800D38122234FF000084FF00009CAF80030D0
:107E9800059B002B40F0D981EBE1012300250793D6
:107EA80088E71A460299504601F0B4FD029000286E
:107EB8003FF45CAE0146189A504601F01BFD06904F
:107EC80000283FF453AE1899504601F02DFC069B4C
:107ED800189382E73A461899504601F0E9FD189040
:107EE80000287FF47CAF41E6129A0499504601F0CD
:107EF80091FD049000287FF476AF37E62246049976
:107F0800504601F0D5FD049000287FF46FAF2DE6B0
:107F180032460299504601F0CBFD029000287FF4CA
:107F280068AF23E6DBF81030012B8EDC7AE161D1F3
:107F3800069AC9F3130322B343494A468B422ED10A
:107F4800039B414663B1414B1340B3F1D46F07D84B
:107F58001B0DC3F16B034FF0FF3000FA03F301E090
:107F68004FF0FF338B421AD139498A4202D101338B
:107F78003FF4FCAD354B4FF00008134003F5801972
:107F880050E163B9B8F1000F09D16AE7A3F580138E
:107F98006FEA13594FF0FF386FEA095942E115B1FA
:107FA80015EA090F02E0079B13EA080F00F03A816F
:107FB800069B039A4046494653B1FFF76DFB0246BC
:107FC8000B46DDE90801FCF717F98046894629E1E7
:107FD800FFF762FB02460B46DDE90801FCF70AF9E8
:107FE8000022002380468946FCF720FD00287FF404
:107FF80048AF17E10299584601F0E5FE00224FF01C
:10800800804306460F46FCF725FD00283FD0069B17
:1080180013B100260F4F10E0B8F1000F03D1C9F3D8
:1080280013033BB91AE0B8F1010F03D1B9F1000FFE
:108038003FF427AF084F00260024064D3CE000BF60
:1080480002FCFFFFE2FBFFFFFFFF0F000000F07FD5
:10805800FFFFEF7F0000F03F0000F0BF00229A4BC7
:1080680030463946FCF7ECFC40B90022974B3046C5
:108078003946FCF773FA04460D4601E0069C934D19
:1080880005F1004314941593DDE9146714E08F4B50
:10809800002230463946FCF761FA069B04460D4635
:1080A80023B901F100430E900F9303E002460B46FB
:1080B800CDE90E23DDE90E6729F000431B0D1B05F2
:1080C8000793079A824B9A422BD1DDE90823A9F13D
:1080D800547940464946CDE90A2301F0B5FD0246E8
:1080E8000B4630463946FCF739FA42464B46FCF710
:1080F80083F821F000431B0D764A1B059342804606
:108108000CD9754B0B9A9A4203D10A9B01333FF461
:108118002DADDFF8C4914FF0FF3872E001F15479CA
:1081280039E0039B3BB3079BB3F1D46F23D85EA31D
:10813800D3E9002320462946FCF78CFCB8B1294630
:108148002046FCF7E3FC002808BF0120FCF790F963
:10815800069B04460D4623B901F100431090119384
:1081680003E002460B46CDE91023DDE91067079AC4
:1081780007F1D6639F1ADDE9080101F065FD0246A3
:108188000B4630463946FCF7E9F9DDE90823FCF7E8
:1081980033F880468946039B9BBB29F000431B0D9F
:1081A800079A1B059A424E462BD129462046FCF7D2
:1081B80085FCFCF76DF90B46024629462046FCF77C
:1081C80019F8069B04460D462BB9B8F1000F02D1E9
:1081D800C9F313067EB136A3D3E900232046294606
:1081E800FCF72EFC88BB34A3D3E90023204629469C
:1081F800FCF744FC04E032A3D3E90023FCF720FC9D
:1082080018BB1899504601F08FFA0499504601F0AE
:108218008BFA0299504601F087FA5946504601F008
:1082280083FA74E5039B83B12C4B40460B930023E0
:108238000A934946DDE90A23FCF790F98046894606
:1082480019B910B92223CAF800301899504601F01C
:108258006BFA0499504601F067FA0299504601F00A
:1082680063FA0599504601F05FFA5946504601F005
:108278005BFA139B13B1179B139A13600C9B1BB1EA
:10828800424609F1004307E042464B4604E0002518
:108298002A460121FFF747BB104619461DB0BDE825
:1082A800F08F00BFAFF300800000C0FFFFFFDF4189
:1082B8009535A094FFFFDF3F35E5AF350000E03F7F
:1082C8009535A094FFFFCF3F0000F03F0000E03F4E
:1082D8000000E07FFFFF9F7CFFFFEF7F0000503929
:1082E8002DE9F0470F4680463F48D0F800903D46BC
:1082F80015F8014B09EB0400407800F0080000F085
:10830800FF0608B12F46F2E72D2C03D1BD1C7C785F
:10831800012603E02B2C04BF7C78BD1C13B1102B65
:108328000AD15BE0302C57D1287800F0DF005828BC
:108338004DD16C7810230235002E14BF4FF0004C3D
:108348006FF0004CBCFBF3FA0027384603FB1ACC4D
:1083580009EB040E9EF801E01EF0040F01D0303C3A
:108368000BE01EF0030E1BD0BEF1010F0CBF4FF047
:10837800370E4FF0570ECEEB0404A34210DDB7F1D1
:10838800FF3F0AD0504506D801D1644503DC03FB02
:108398000040012701E04FF0FF3715F8014BD7E700
:1083A8007B1C0CD1002E4FF0220314BF4FF000406D
:1083B8006FF00040C8F800302AB9BDE8F08706B170
:1083C800404272B107B1691E1160BDE8F0873024E0
:1083D800002BB1D10823AFE70A23ADE7302CA3D097
:1083E800AAE7BDE8F08700BFA80000202DE9F74FF5
:1083F80003690C6980469C427FDC013C01F114074B
:108408004FEA840E00F1140606EB0E0357F82450C9
:10841800019356F824300135B3FBF5F507EB0E0947
:10842800C5B34FF0000A3846B446D34650F8043B6B
:108438009AB205FB02A21B0C4FEA124A05FB03A3E2
:1084480092B2C2EB0B0BBCF800204FEA134A5A4415
:108458001FFA83FBDCF800308145CBEB134303EBB9
:10846800224392B242EA03424FEA234B4CF8042BD0
:10847800DCD256F80E306BB9019B043B9E421A467B
:1084880002D3C8F8104005E01268043B002AF8D16E
:10849800013CF3E7404601F05CFB00282BDB30464B
:1084A80001354FF0000E57F8042B036891B2C1EB69
:1084B8000E0E120C99B27144C2EB134303EB214325
:1084C80089B24FEA234EB94541EA034340F8043BD9
:1084D800E9D256F8242006EB840362B9043B9E4295
:1084E8001A4602D3C8F8104005E01268043B002A77
:1084F800F8D1013CF3E7284600E0002003B0BDE8CE
:10850800F08F0000000000002DE9F04F456A95B09B
:108518008246219CCDE9022345B9102001F0AEF82E
:10852800CAF82400456085600560C560DAF8243023
:10853800196859B15A68012393404A608B605046C4
:1085480001F0F2F8DAF8243000221A60039BA04AFE
:10855800002BBDBF01232360039B0023BCBF23F076
:1085680000430393DDF80C80A8BF236028F0004384
:108578001B0D1B0593421DD142F20F73209A136005
:10858800029B43B9934A944BC8F31300002814BFC5
:108598001846104600E09048229B002B00F04685C4
:1085A800C37813B100F1080300E0C31C229A1360DA
:1085B80000F03CBDDDE902450022002320462946A3
:1085C800FCF734FA074658B1209A01231360229B1E
:1085D800002B00F01E8581481860013800F026BD88
:1085E80012AB019313AB009322462B46504601F081
:1085F8009CFBC8F30A56049056B1C5F3130343F025
:108608007F51204641F44011A6F2FF3611971DE034
:10861800139B129E1E4406F23243202B0ADD029A57
:1086280006F21240C3F1400322FA00F008FA03F3FD
:10863800184304E0C3F12000029B03FA00F0FBF7A3
:1086480017FF0123A1F1F871013E11930022644B39
:10865800FBF7D0FD58A3D3E90023FBF77FFF58A30E
:10866800D3E90023FBF7C8FD044630460D46FBF767
:108678000FFF55A3D3E90023FBF770FF02460B4613
:1086880020462946FBF7B8FD04460D46FCF716FAC6
:1086980000228346002320462946FCF7D1F958B129
:1086A8005846FBF7F5FE02460B4620462946FCF7DE
:1086B800BDF908B90BF1FF3BBBF1160F0DD8DDE989
:1086C8000223484901EBCB01D1E90001FCF7D6F9B7
:1086D80030B10BF1FF3B002300E00123109300E0D1
:1086E8001090129B9E1B731E079343BFC3F1000893
:1086F800002307934FF00008BBF1000F06DB079B30
:10870800CDF82CB05B440793002705E00023CBEBA2
:108718000808CBF100070B931E9B092B28D8052BC3
:10872800C4BF043B1E931E9BC8BF0025A3F10203D0
:10873800D8BF0125032B20D8DFE803F0060E02047A
:10874800012302E0012308E000230A931F9B002B6A
:108758001DDD9946059321E000230A931F9B0BEB2F
:10876800030909F10103012B0593B8BF012315E0A3
:10877800012500231E930A9501E001230A934FF077
:10878800FF390022CDF8149012231F9206E04FF013
:1087980001094B46CDF81490CDF87C90DAF82440C6
:1087A80000226260042101F114029A421CD8626816
:1087B800490001326260F6E761436F63A787D23FE1
:1087C800B3C8608B288AC63FFB799F501344D33FB8
:1087D8000000F07F51A900085AA90008D3A7000893
:1087E8000000F83F68A900086168504600F067FF7C
:1087F800DAF8243020601B680693059B0E2B00F2E4
:108808005B81002D00F05881DDE90234BBF1000FD7
:10881800CDE90E3430DD9F4A0BF00F034FEA2B15DC
:1088280002EBC303E80618CBCDE908340CD5DDE923
:108838000E01994B05F00F05D3E90823FBF7B8FFA4
:108848000324CDE9020100E00224934E6DB1E9074B
:1088580008D5DDE90801D6E90023FBF77FFECDE95D
:10886800080101346D100836F0E7DDE90823DDE979
:108878000201FBF79DFF20E0CBF1000505B3DDE920
:108888000E01844B05F00F0203EBC203D3E900236A
:10889800FBF764FECDE902017F4E2D11002302246F
:1088A80055B1EA0705D5D6E90023FBF757FE013491
:1088B80001236D100836F3E71BB1CDE9020100E092
:1088C8000224109BE3B1DDE902560022734B2846CF
:1088D8003146FCF7B5F898B1059B8BB1B9F1000F9B
:1088E80040F3E6800BF1FF330893314600226C4BCE
:1088F8002846FBF733FE0134CDE902014E4602E07B
:10890800059ECDF820B02046FBF7C2FDDDE9022325
:10891800FBF724FE634B0022FBF76EFCA1F15073BA
:1089280004460C931D46D6B9DDE9020100225E4BD0
:10893800FBF760FC22460C9BCDE90201FCF79EF890
:10894800002840F03F820C99224601F10043DDE9FE
:108958000201FCF775F8002840F02B82A8E00A9A7B
:108968004C4B711E002A49D003EBC103D3E9002305
:1089780000204E49FBF71CFF22462B46FBF73AFC2A
:10898800CDE90C01069CDDE90201FCF797F80546E4
:10899800FBF77EFD02460B46DDE90201FBF72AFCE8
:1089A800DDE90C23303504F8015BCDE90201FCF761
:1089B80047F8002840F01D83DDE9022300203749ED
:1089C800FBF718FCDDE90C23FCF73AF8002840F027
:1089D800D180069BE31AB3426ADADDE90C01002272
:1089E8002F4BFBF7BBFD0022CDE90C01DDE90201AD
:1089F8002B4BFBF7B3FDCDE90201C4E703EBC10143
:108A08002246D1E900012B46FBF7A8FD069BCDE9DC
:108A18000C011D469C19DDE90201FCF74FF80646DA
:108A2800FBF736FD02460B46DDE90201FBF7E2FBE8
:108A3800303605F8016BAC42CDE902014FF0000277
:108A480022D11A4BDDE90C01FBF7D6FB02460B4697
:108A5800DDE90201FCF712F8002840F08B80DDE91F
:108A68000C2300201149FBF7C5FB02460B46DDE944
:108A78000201FBF7E5FFD8B114F8013C621E302B68
:108A880040F0B7821446F7E7054BFBF767FDCDE9E1
:108A98000201C0E768A9000840AA00080000F03FEA
:108AA8000000244000001C40000014400000E03F8B
:108AB800DDE90E34CDE90234139B002B7CDBBBF1DE
:108AC8000E0F79DCAB4B03EBCB03D3E900671F9B9D
:108AD800002B14DA059B002B11DC40F06C8100227E
:108AE800A54B30463946FBF739FDDDE90223FBF794
:108AF800BBFF059D2E46002840F05F8165E1069C7E
:108B0800DDE9028932463B4640464946FBF750FEBE
:108B1800FBF7D4FF0546FBF7BBFC32463B46FBF7A9
:108B28001DFD0B46024649464046FBF763FB05F12F
:108B3800300E069B04F801EBC3EB040E059B73454E
:108B48002DD102460B46FBF757FB80468946024665
:108B58000B4630463946FBF773FF78B942464B4619
:108B680030463946FBF762FF002800F04482EB07E5
:108B780004D440E2DDF820B000E01C4614F8012CD3
:108B8800631E392A07D1069A9A42F6D106993022ED
:108B98000BF1010B0A701A7801321A702BE20022CD
:108BA800764BFBF7DBFC0022002380468946FBF767
:108BB8003DFF0028A6D01EE20A9A002A2BD01E9A52
:108BC800012A0ADC119A12B103F2334302E0129B24
:108BD800C3F136033D46444613E0059B5D1EAF4294
:108BE800BFBF0B9BEA1B9B180B93059BB6BF2F4679
:108BF8007D1B0025002BA7BF4446059BC3EB08043B
:108C08000023079A01211A4450469844079200F01D
:108C180068FE064602E03D4644460A9E5CB1079B54
:108C2800002B08DDA342A8BF2346079AC3EB080818
:108C3800E41AD31A0793002F1DDD0A9BABB18DB13F
:108C480031462A46504600F0E5FE049A014606469B
:108C5800504600F04FFE04990890504600F064FD1D
:108C6800089B04937A1B06D000E03A4604995046C4
:108C780000F0D0FE04900121504600F032FE0B9B1C
:108C880005465BB31A460146504600F0C3FE1E9BDC
:108C98000546012B18DC029B83B9039BC3F313031E
:108CA80073B9039B23F000473F0D3F054FB1079B66
:108CB80008F1010801330793012702E0002700E0CB
:108CC800029F0B9B73B100E000272B6905EB830320
:108CD800186900F0B9FDC0F1200004E01E9B012BCB
:108CE800D9DD0B9F0120079B184410F01F0008D006
:108CF800C0F12003042B02DDC0F11C0002E006D005
:108D080018461C30079B8044034404440793B8F179
:108D1800000F05DD42460499504600F0C9FE049054
:108D2800079B002B05DD29461A46504600F0C0FE79
:108D38000546109B23B32946049800F00AFF002833
:108D48001EDA00230A220499504600F004FD0A9B0B
:108D58000BF1FF3B0490002B00F05F8131460023AC
:108D68000A22504600F0F7FCB9F1000F06463FDC36
:108D78003BE000BF68A90008000014400000244040
:108D8800059B002B2BDC1E9B022B28DDDDF81490A5
:108D9800B9F1000F11D129464B460522504600F083
:108DA800DAFC01460546049800F0D3FE00280CDCE6
:108DB80003E0354600E000252E461F9B069C6FEA1F
:108DC800030B09E03546DDF820B0069B069A5C1CCB
:108DD800312313700BF1010B05960026F7E00A9B6F
:108DE800DDF8149023B9069CB2E01E9B022BCFDC61
:108DF800002C05DD31462246504600F059FE064655
:108E08009FB17168504600F05AFC0446326906F179
:108E18000C01023292000C3000F046FC012221467F
:108E2800504600F045FE059000E00596029B069F1F
:108E380003F00103079329460498FFF7D7FA314650
:108E4800044600F13008049800F083FE059A029069
:108E58002946504600F099FEC36802463BB90146D0
:108E68000A90049800F075FE0A9A034600E0012370
:108E7800114650460A9300F057FC0A9B53B91E9AB4
:108E880042B9079A32B9B8F1390F2AD0029B002BA0
:108E98001CDC1DE0029A002A04DB1BD11E9ACAB909
:108EA800079ABAB9002B13DD01220499504600F045
:108EB800FFFD2946049000F04CFE002803DC07D192
:108EC80018F0010F04D0B8F1390F0AD004F13108B5
:108ED8007C1C0CE0002B07F101040BDDB8F1390F05
:108EE80003D139233B70013756E008F1010887F8B0
:108EF80000806CE0069B2746E31A4B4504F8018C7A
:108F08003BD000230A220499504600F024FC059B1C
:108F180004909E424FF00A024FF00003314650463B
:108F280004D100F018FC0646059084E700F013FC15
:108F3800002306460A220599504600F00CFC0590CD
:108F480079E700230A220499504600F004FC0490B3
:108F580029460498FFF74AFA069B00F1300804F8FE
:108F6800018BE31A4B45ECDB069B0596B9F1010F23
:108F7800ACBF4B4401331F460026012204995046DA
:108F880000F096FD2946049000F0E3FD002803DC7C
:108F980015D118F0010F12D03C4614F8013C621E9E
:108FA800392B09D1069B934204D10BF1010B3123D4
:108FB800069A02E01446F0E70133137007E03C46D6
:108FC80014F8013C621E302B01D11446F8E72946FB
:108FD800504600F0A9FB059B6BB12EB19E4203D011
:108FE8003146504600F0A0FB0599504600F09CFB26
:108FF80001E0DDF820B00499504600F095FB00230D
:10900800209A23700BF101031360229B1BB11C6093
:1090180001E008480AE0069808E0B9F1000F3FF7B8
:10902800E2AE1E9B022B7FF7DEAEB1E615B0BDE8BF
:10903800F08F00BFD2A70008F0B506694B11B34204
:1090480000F1140527DA11F01F0105EB860605EB80
:10905800830201D1294616E0141D55F823202B461A
:10906800C1F1200ECA40B44209D2276807FA0EF7A8
:109078003A4343F8042B54F8042BCA40F3E71A6028
:1090880052B1043308E0B2420B4605D252F8043B11
:1090980041F8043BF7E72B465B1B9B10036103B9C0
:1090A8004361F0BDA0F13003092B01D820380AE054
:1090B800A0F16103052B01D8473804E0A0F1410372
:1090C800052B02D82738C0B27047002070472DE919
:1090D800F04F8BB08A4690460693029000F0CAFA89
:1090E80003684FF0000B18460393FBF777F8039BD0
:1090F8000190034413F8013C0793DAF80030023377
:109108001F4613F8010B302802D10BF1010BF7E7CA
:10911800FFF7C8FF0446E0B9019A0399384601F001
:10912800BDF8002834D1019BF85CFE18FFF7BAFFA0
:1091380080B3334618781F46302803F10103F9D06D
:10914800FFF7B0FFB0FA80F534466D094FF0010B18
:1091580001E000252C463A46164630780132FFF7E2
:10916800A1FF0028F8D1019A0399304601F096F83A
:1091780050B954B9019BF41822461646307801328A
:10918800FFF790FF0028F8D134B1A41BA40003E036
:109198003E4600E0044601253378502B01D0702B61
:1091A8002AD173782B2B08D02D2B03D0711C4FF0AC
:1091B800000905E04FF0010901E04FF00009B11C7A
:1091C8000878FFF76FFF431EDBB2182B14D8A0F105
:1091D800100211F8010FFFF765FF431EDBB2182BD1
:1091E80004D80A2303FB0202103AF2E7B9F1000F90
:1091F80000D05242144400E03146CAF800102DB1A4
:10920800BBF1000F14BF002006207CE12946F31BA8
:10921800013B072B02DD01315B10FAE7029800F0F1
:109228004EFA4FF000090546CB46019B00F1140A9F
:10923800C3F10103CDF810A00893B7422FD2731ED3
:109248000593079A16F8013C93420BD0BBF1200F07
:1092580016D1049BC3F8009004334FF0000904931F
:10926800CB460DE0059B089A13449F42EED818465A
:10927800019A0399099301F011F8099B68B1E5E790
:1092880016F8010CFFF70EFF00F00F0000FA0BF0C4
:10929800059B49EA00090BF1040B1E46CDE704982B
:1092A80040F8049BCAEB000080102861470148463B
:1092B80000F0CAFAD8F80060381AB04226DD871BD9
:1092C8003946284600F0C1FDC8B17B1E591103F08C
:1092D8001F024FF001095AF8211009FA02F20A4256
:1092E8000ED04B4502DC4FF0020909E0B91E2846B2
:1092F80000F0ABFD0028F6D04FF0030900E08146EE
:1093080039462846FFF798FE3C440CE009DA371A3C
:1093180029463A46029800F0CBFB0546E41B00F1CB
:10932800140A4FF00009D8F808309C4208DD02986A
:10933800294600F0F9F9149A00231360A320E2E00B
:10934800D8F80400844253DA041BA6422EDCD8F86D
:109358000C30022B1AD0032B1CD0012B1DD1A64296
:109368001BD1012E0BDCD8F80430069A622013605A
:1093780001232B61CAF80030149B1D60C3E0711EE5
:10938800284600F062FD0028EDD106E0159B002B71
:10939800E9D002E0159B002BE5D10298294600F0A0
:1093A800C3F9149A002313605020ACE0671EB9F18A
:1093B800000F06D13FB13946284600F046FD8146E8
:1093C80001E04FF001097A11012307F01F0703FAA2
:1093D80007F75AF8223021461F42284618BF49F09D
:1093E8000209361BFFF728FE0227D8F8044000E0E0
:1093F8000127B9F1000F00F08180D8F80C30022B5A
:109408000ED0032B10D0012B76D119F0020F73D098
:10941800DAF8000049EA000919F0010F07D16BE0FA
:10942800159BC3F101031593159B002B64D0D5F848
:1094380010A005F114034FEA8A0903EB0901002083
:109448001A68B2F1FF3F02D001321A6020E043F8F7
:10945800040B9942F4D8AB689A4512DB6968029804
:10946800013100F02CF983462A6905F10C0102321A
:1094780092000C3000F018F92946029800F054F9CF
:109488005D462B695A1C2A6105EB830301225A6148
:10949800022F05F1140211D1D8F80030013B9E4289
:1094A80027D17111012306F01F0603FA06F652F8B8
:1094B80021301E420CBF022701271AE02B699A456A
:1094C8000ADA01212846FFF7B7FDD8F80830013439
:1094D8009C423FF72CAF0BE016F01F0608D09144D2
:1094E80059F8040C00F0B0F9C6F12006B042E8DBE8
:1094F800012747F0200701E047F010073846149B82
:109508001D60069B1C600BB0BDE8F08FC2F108021D
:10951800920070B5C2F120064368056803FA06F4A4
:109528002C43D340046040F8043F8842F4D370BD14
:1095380030B5036811F8014B01334CB11A78A2F128
:109548004105192D98BF2032A242F3D0002030BD2A
:109558000360012030BD0B682DE9F04F5E1102EB6E
:10956800860613F01F0318BF0436351F174600225E
:109578008246A8462C46914685B0D0F800B00193A3
:1095880046F8042C00921BF8011F00293CD008461D
:1095980003920291FFF786FD039A00BB02992029E6
:1095A80016D8009B9945EEDD444505D2072A03DC11
:1095B80041462046FFF7AAFFBC4223D90023A4F165
:1095C800040844F8043CCDF8009044461A46DAE70B
:1095D800292948D10BF10103CAF8003014E00132FF
:1095E800082A09F1010906DDBC42CCD9002344F858
:1095F800043C0122043C216800F00F0040EA0110FD
:109608002060C0E70822BEE7B9F1000F2BD044451F
:1096180005D2072A03DC41462046FFF777FFBC4204
:109628000CD93B4654F8042BA54243F8042BF9D235
:10963800002243F8042B9D42FBD20BE0019B4BB167
:10964800C3F120024FF0FF33D34056F8042C1340E7
:1096580046F8043C2B6843B9BD4202D101232B6074
:1096680003E0043DF6E7042000E0052005B0BDE86E
:10967800F08F000000487047AC000020024B014604
:10968800186800F05FBC00BFA400002010B5C9B284
:1096980002449042034605D01C7801308C42F8D130
:1096A800184610BD002010BD10B5431E0A44914253
:1096B80004D011F8014B03F8014FF8E710BD70B55D
:1096C800456A04460E463DB91020FFF7D7FF606291
:1096D800456085600560C560656AEB6843B1636A8B
:1096E800DB6853F8260078B1026843F8262017E0B3
:1096F80021220421204600F0CAFB636AE860DB6887
:10970800002BECD1002070BD012101FA06F56A1D7D
:109718009200204600F0BBFB0028F3D0466085602D
:1097280000230361C36070BD70B5446A06460D46E8
:109738003CB91020FFF7A2FF7062446084600460A7
:10974800C4603DB1736A6A68DB6853F82210296007
:1097580043F8225070BD2DE9F04106460C460D69CC
:109768001F4601F1140E0023DEF80000013381B218
:1097780002FB0171000C0F0C02FB007089B201EBB7
:1097880000419D424FEA10474EF8041BECDCD7B16C
:10979800A3689D4212DB616830460131FFF78FFFF5
:1097A8008046226904F10C01023292000C30FFF766
:1097B8007BFF21463046FFF7B7FF444604EB85039D
:1097C80001355F6125612046BDE8F0812DE9F84348
:1097D800064615461F46092208330C4693FBF2F34A
:1097E800002101229A4202DA52000131FAE730469A
:1097F800FFF765FF089B092D43614FF001030361E3
:1098080011DD04F10908C1462C4419F8013B014651
:10981800303B0A223046FFF79EFFA145F5D108EB01
:109828000504083C01E00A3409252D1B63199F42F1
:1098380008DD14F8013B0146303B0A223046FFF7A9
:109848008AFFF3E7BDE8F883030C1B0413B900048F
:10985800102300E0002310F07F4F04BF00020833FC
:1098680010F0704F04BF0001043310F0404F04BFE4
:1098780080000233002803DB420003D5581C7047E0
:109888001846704720207047036813F007020BD072
:10989800D90722D49A074BBF5B089B080360036073
:1098A8004CBF01200220704799B209B91B0C102245
:1098B80013F0FF0F04BF1B0A0832190704BF1B0966
:1098C8000432990704BF9B080232D90702D45B0807
:1098D80005D00132036010467047002070472020F1
:1098E800704710B50C460121FFF7E9FE01224461DB
:1098F800026110BD2DE9F74F14460A6923698846AD
:109908009A42BEBF0B46A0461C46D8F81070D4F841
:109918001090D8F80830D8F8041007EB09069E42D2
:10992800C8BF0131FFF7CBFE00F114052B4605EB4C
:10993800860C0022634502D243F8042BFAE704F1AF
:10994800140208F1140102EB890301EB8707009365
:10995800009B0192934257D9B2F800B0BBF1000FB7
:1099680023D08946AE464FF0000859F8044BBEF89C
:1099780000A0A3B20BFB03A34FEA144ADEF8004091
:1099880043444FEA14480BFB0A84F24604EB1344A1
:109998009BB243EA04434F454FEA14484AF8043B54
:1099A80001D9D646E1E7CEF80480019B0432B3F82A
:1099B80002A0BAF1000F21D02C4689462B684FF03F
:1099C8000008B9F800E0B4F802B09BB20AFB0EBE7A
:1099D800A346F04443EA08434BF8043B59F8043BD8
:1099E800B4F804E01B0C0AFB03E34F4503EB1843F0
:1099F8004FEA134801D95C46E3E763600435A7E7FB
:109A08005CF8043D13B9013E002EF9DC066103B091
:109A1800BDE8F08F2DE9F843154612F0030206461B
:109A28000F4607D0214C013A002354F82220FFF7B3
:109A380092FE0746AD1036D0746A3CB91020FFF785
:109A48001DFE7062446084600460C460D6F824809F
:109A5800D8F808404CB940F271213046FFF741FF71
:109A680004460023C8F8080003604FF00008EB071D
:109A78000AD5394622463046FFF73CFF814639462B
:109A88003046FFF751FE4F466D100CD0206808B1E4
:109A98000446ECE7224621463046FFF72BFF2060BC
:109AA800C0F80080F4E73846BDE8F88330AA00081B
:109AB8002DE9F0470C460746914626694FEA621A97
:109AC80056444968A368751CAB4202DA01315B0051
