:0C800000F8B500BFF8BC08BC9E467047F5
:10800C0008B5074B044613B10021AFF30080054BB4
:10801C001868836A03B19847204601F08DFD00BFB4
:10802C0000000000989F000008B500F0BDF801F0BA
:10803C0039F801F0FDF801F08BFA322001F0BAF8B2
:10804C00F5E7000010B5054C237833B9044B13B198
:10805C000448AFF300800123237010BD58200100A9
:10806C0000000000A49F0000084B10B51BB108488D
:10807C000849AFF300800848036803B910BD074BEB
:10808C00002BFBD0BDE81040184700BF00000000DB
:10809C00A49F00005C200100B01F01000000000044
:1080AC00154B002B08BF134B9D46A3F5803A0021BE
:1080BC008B460F461348144A121A01F035FD0F4B2C
:1080CC00002B00D098470E4B002B00D09847002077
:1080DC00002104000D000D48002802D00C48AFF31D
:1080EC00008001F0FBFC20002900FFF79DFFFFF74B
:1080FC0087FF00BF00000800000000000000000027
:10810C000000000058200100DC20010000000000ED
:10811C000000000040F0BF60024B40F40030D8601B
:10812C00704700BF00ED00E0C27810B503780AB3C9
:10813C00164A03F16043D4684278E443C4F3022442
:10814C00C4F1040102FA01F10F22E240847803F534
:10815C00614322400A431201D2B283F80023037810
:10816C000122590903F01F0302FA03F3084A42F8EB
:10817C00213010BD5A09012103F01F03994002F16F
:10818C002003034A42F8231010BD00BF00ED00E0AD
:10819C0000E100E021F0604121F07F01014B084338
:1081AC009860704700ED00E008B500F0B3FD4FF4A7
:1081BC00804000F001FE00F00BFE00F033FF00F0F9
:1081CC00FBFE00F067FE00F06FFF01F043FB01F0D7
:1081DC0008F801F053FB01F025FC0021EF2000F022
:1081EC0077FD01F05DFC094B5B7B0BB101F0BCFA38
:1081FC000748072101F0A6FB4FF4487000F0DAFFA6
:10820C00BDE808404FF47A7000F037BFA820010099
:10821C00549B000008B5134B984207D14FF40070E3
:10822C00012100F07FFB4FF4007014E00E4B9842DC
:10823C0007D14FF48060012100F074FB4FF4806093
:10824C0009E00A4B98420BD14FF40040012100F099
:10825C0069FB4FF400400021BDE8084000F062BB10
:10826C0008BD00BF0024014000280140003C014033
:10827C00436810B523F470220B6822F48072134308
:10828C000A7943EA022343608A68CB6884681A43FC
:10829C00084B234013434A7943EA42038360C36A81
:1082AC0023F470020B7C013BDBB242EA0353C36242
:1082BC0010BD00BFFDF7F1FF836811B143F001035E
:1082CC0001E023F0010383607047836811B143F42C
:1082DC00807301E023F4807383607047836843F0FC
:1082EC000803836070478068C0F3C00070478368E0
:1082FC0011B143F4A00301E023F4A00383607047A1
:10830C00092970B50CD9A1F10A04C66804EB440420
:10831C000725A54026EA0505A3402B43C36009E0C9
:10832C00056901EB41060724B44025EA0404B34077
:10833C0023430361062A0BD8013A446B02EB8202F9
:10834C001F23934024EA030391401943416370BDFA
:10835C000C2A0BD8073A046B02EB82021F239340C2
:10836C0024EA030391401943016370BD0D3AC46ABA
:10837C0002EB82021F23934024EA0303914019432A
:10838C00C16270BDC06C80B2704700004FF6FE73C6
:10839C000268134003600023036043608360C36082
:1083AC00284B984201D1284A27E0284B984201D10A
:1083BC00254A2AE0264B984201D1234A2DE0254B31
:1083CC00984201D1204A30E0234B984201D11E4AF9
:1083DC0033E0224B984204D11B4A536843F4700398
:1083EC002EE01F4B984204D1174A536843F0706338
:1083FC0026E01C4B984204D11B4A536843F00F03F0
:10840C001EE01A4B984204D1174A536843F0F0030C
:10841C0016E0174B984204D1134A536843F4706327
:10842C000EE0144B984204D10F4A536843F4704346
:10843C0006E0114B984204D10B4A536843F4702365
:10844C005360704708000240000002401C000240CC
:10845C003000024044000240580002406C000240D0
:10846C008000024008040240000402401C04024048
:10847C003004024044040240580402408A6810B59B
:10848C000C6A036814430A6923F4FF4314434A69D2
:10849C0023F0700314438A691443CA6914434A6A6B
:1084AC0014438A6A224313430360CB6843600B680E
:1084BC0083604B68C36010BD19B1036843F00103BE
:1084CC0003E04FF6FE730268134003607047000030
:1084DC00827970B501680379002A29D0CE43194AF4
:1084EC0003F18043156803F58233354015605468F9
:1084FC00344054601C682143196003689468DD4360
:10850C002C409460D1682940D1604179102909BF71
:10851C00916801F180421943916015BF02F58232D6
:10852C00D16811680B4316BF0B43D360136070BD49
:10853C0003F1804303F582331A6822EA01011960C2
:10854C0070BD00BF00040140034A136803F03803F8
:10855C0018431060704700BF00200240044B1A689B
:10856C0022F010021A601A6810431860704700BF9E
:10857C0000200240034B044A5A6002F188325A60D0
:10858C00704700BF0020024023016745014BD860B3
:10859C00704700BF00200240084BDA68D10709D4AD
:1085AC00DA68520708D4DB6813F0100F14BF0320ED
:1085BC0004207047012070470220704700200240C1
:1085CC0010B50446FFF7E8FF012806D11CB1FFF7F0
:1085DC00E3FF013CF8E7052010BD002C08BF052087
:1085EC0010BD000038B505464FF43020FFF7E8FF0A
:1085FC00042812D1094C4FF43020236943F00203B4
:10860C0023616561236943F040032361FFF7D8FFC1
:10861C0041F6FD7322691340236138BD00200240EE
:10862C0070B505464FF400500E46FFF7C9FF0428FD
:10863C000ED1084C4FF40050236943F00103236121
:10864C002E80FFF7BDFF41F6FE73226913402361B4
:10865C0070BD00BF00200240CA78F0B5D40648BFF8
:10866C008C780D8802F00F0348BF234315F0FF0FE1
:10867C001DD0016800240126A64006EA0507B74272
:10868C0011D14FEA840E0F2606FA0EF621EA0601E6
:10869C00282A03FA0EF641EA060101D1476102E0ED
:1086AC00482A08BF07610134082CE4D10160FF2D72
:1086BC001FD94168002404F108070126BE4006EAD0
:1086CC000507B74211D14FEA840E0F2606FA0EF6B3
:1086DC0021EA0601282A03FA0EF641EA060101D125
:1086EC00476102E0482A08BF07610134082CE2D137
:1086FC004160F0BD0161704741617047002830B5A1
:10870C00154C00F44015B4BFE3696368B5F5401F20
:10871C0082B206D1656823F0706325F070656560E0
:10872C000EE0C40255BF440D03242401C0F30345DD
:10873C004CBFAC4002FA04F423EA040343F0706328
:10874C0019B1410D09018A401343034A0028B4BFF3
:10875C00D361536030BD00BF0000014001F0030342
:10876C0001F0FC0101F1804101F5803110B59B0055
:10877C008C680F229A4024EA02028A608A68984028
:10878C0002438A6010BD0000014B1860704700BFA7
:10879C0000300040014B5860704700BF0030004073
:1087AC00014B9860704700BF003000404AF6AA2287
:1087BC00014B1A60704700BF003000404CF6CC42B1
:1087CC00014B1A60704700BF003000400D4B1A6817
:1087DC0042F001021A6059680B4A0A405A601A6842
:1087EC0022F0847222F480321A601A6822F48022F9
:1087FC001A605A6822F4FE025A604FF41F029A6003
:10880C00704700BF001002400000FFF8014B1860D9
:10881C00704700BF00004242014B1860704700BF18
:10882C0060004242034A536823F00303184350602C
:10883C00704700BF00100240024B586800F00C005B
:10884C00704700BF00100240014B1860704700BF1A
:10885C00D80042421C4A10B5536803F00C03042B99
:10886C0001D0082B01D0194B0EE053685168C3F3AB
:10887C008343CC0303F1020302D55168890301D56C
:10888C00134900E011494B4303605368114CC3F387
:10889C000313E15C0368CB4043605168C1F30221D0
:1088AC00615C23FA01F181605168C1F3C221615C02
:1088BC00CB40C36052680849C2F381328A5CB3FB77
:1088CC00F2F3036110BD00BF0010024000127A00E9
:1088DC0000093D00B81F0100B41F0100044B5A6988
:1088EC0009B1104301E022EA00005861704700BF53
:1088FC0000100240044B9A6909B1104301E022EACE
:10890C0000009861704700BF00100240044BDA6908
:10891C0009B1104301E022EA0000D861704700BFA2
:10892C0000100240044BDA6809B1104301E022EA5E
:10893C000000D860704700BF001002404209012AB5
:10894C00074B01D11B6803E0022A0CBF1B6A5B6A50
:10895C0000F01F0023FA00F000F00100704700BF88
:10896C0000100240224A038890429BB212D002F5BA
:10897C00006290420ED0B0F1804F0BD0A2F598322D
:10898C00904207D002F58062904203D002F58062DB
:10899C00904203D14A8823F070031343154A904246
:1089AC0008D002F5806290421FBF23F44073CA883E
:1089BC009BB2134303808B8883850B8803850C4BF8
:1089CC0098420FD003F5006398420BD003F5406337
:1089DC00984207D003F58063984203D003F5806377
:1089EC00984201D10B7A038601238382704700BF22
:1089FC00002C014000100040038819B19BB243F0D9
:108A0C00010303E023F001031B041B0C03807047DC
:108A1C0083899BB20AB1194301E023EA01018181E8
:108A2C007047038819B19BB243F0800303E023F035
:108A3C0080031B041B0C03807047000070B586B0CC
:108A4C000446868801A80D46FFF704FF039A2E48BA
:108A5C0026F03F06B2FBF0F03604360C81B20E4322
:108A6C00A6802388294E23F001031B041B0C2380B2
:108A7C002B68B3420AD85B00B2FBF3F301319BB213
:108A8C00032B89B298BF0423218423E04BF6FF719A
:108A9C00EE888E421BBF19214B4303EB4303B2FB01
:108AAC00F3F30BBFB2FBF3F39BB29BB243F48043E3
:108ABC00C3F30B020AB943F001034FF4967101FBA7
:108ACC0000F24FF47A7192FBF1F2013292B243F45C
:108ADC0000432284A383238869899BB243F001035A
:108AEC0023802388AA8823F4816323F002031B04C8
:108AFC000A431B0C13439BB223802A89AB89134373
:108B0C009BB2238106B070BD40420F00A0860100CD
:108B1C00038819B19BB243F0010303E023F0010376
:108B2C001B041B0C03807047038819B19BB243F4E0
:108B3C00807303E023F480731B041B0C03807047C9
:108B4C00038819B19BB243F4007303E023F4007360
:108B5C001B041B0C038070470182704712B141F05B
:108B6C00010101E001F0FE0189B201827047838AA4
:108B7C0010B59AB2038B21F07F4442EA034304EA16
:108B8C000300431A5842584110BD82B00023009391
:108B9C0001930B0F01900093009B21F07F4113B1C7
:108BAC00019B143302E0019B090C18330193019BC8
:108BBC001B68194214BF0120002002B0704700004E
:108BCC0038B50A2500240648FFF7DCFB013D20449C
:108BDC0015F0FF0584B2F6D19020B4FBF0F038BD4F
:108BEC0000280140F8B51A4C002326682360194B65
:108BFC0010225A61052000F0DDFA174909220B8872
:108C0C0008469BB21D461F460188013A89B28F4225
:108C1C0038BF0F468D4228BF0D4612F0FF020B44A1
:108C2C00F2D10E48DB1B02780D495B1BDB0841F8C7
:108C3C002230013202F00302027091E8090018445C
:108C4C008B6826601844CB68184440F38F00F8BD3D
:108C5C009C200100000C0140C82001007420010080
:108C6C0078200100174930B54B8808469BB21C464A
:108C7C001D4609224188013A89B28D4238BF0D4602
:108C8C008C4228BF0C4612F0FF020B44F2D10E4866
:108C9C005B1B02780D491B1BDB0841F822300132AB
:108CAC0002F00302027091E8090018448B68184422
:108CBC00CB68184440F6E44380085843000BA0F5F9
:108CCC00FA7030BDC8200100752001008C20010015
:108CDC0038B508B10C4B18800C4D99B1FFF782FFD9
:108CEC000446FFF7BFFF40F2263250434FF47A732D
:108CFC0003FB0404044B06481B8800FB034090FB59
:108D0C00F2F02880288838BD882001008A200100D4
:108D1C0018FCFFFF7FB5FFF759FD1020FFF71EFC75
:108D2C000120FFF711FC204B204A596801200A430F
:108D3C005A601A6842F080721A60FFF767FD0120D2
:108D4C00FFF76AFD3920FFF7F9FD0028FAD0022061
:108D5C00FFF768FDFFF770FD0828FBD117200121F4
:108D6C00FFF7BCFD40F20C600121FFF7C3FD0121B0
:108D7C000320FFF7CBFD0120FFF766FD01A8FFF7ED
:108D8C0069FD029B4FF47A72B3FBF2F3084A013B84
:108D9C005360084BF02183F82310002393600723C2
:108DAC00136007B05DF804FB001002400A846800F1
:108DBC0010E000E000ED00E008B501464FF0006067
:108DCC00FFF7E8F9BDE808404FF4A060FFF7A2B93F
:108DDC00F7B509200121FFF78DFD2A4D2A48012105
:108DEC00FFF78CFC29480121FFF788FC0026802323
:108DFC00284601A91024ADF804308DF8076003272C
:108E0C00FFF72AFC4FF48073284601A9ADF8043013
:108E1C008DF807408DF80670FFF71EFCADF8044086
:108E2C008DF807401A4C01A920468DF80670FFF703
:108E3C0013FC0123204601A9ADF804308DF807601E
:108E4C00FFF70AFC0223204601A9ADF804308DF887
:108E5C000760FFF701FC48264FF41073284601A960
:108E6C00ADF804308DF80760FFF7F6FB20232046A1
:108E7C0001A9ADF804308DF80760FFF7EDFB03B0E6
:108E8C00F0BD00BF000801400001300000023000BE
:108E9C00000C0140F0B5434891B0FFF777FA424B14
:108EAC0000250593414B0226069380230A934FF429
:108EBC0080730B934FF480630C9320230D933948EC
:108ECC004FF4005305A90E930795089609950F9535
:108EDC00FFF7D4FA01213348FFF7EEFA3448FFF7D5
:108EEC0099F9012469464FF4602731488DF8044004
:108EFC008DF805400095029703958DF81060FFF7EB
:108F0C00B7F92C48FFF786F92A4869468DF80440D2
:108F1C008DF805408DF81040009502970395FFF7EA
:108F2C00A7F907210B4622483246FFF7E9F92246FA
:108F3C001F4808210723FFF7E3F9224605231D48A4
:108F4C000921FFF7DDF921461948FFF7BEF9214643
:108F5C001748FFF7B1F921461648FFF7ADF9144849
:108F6C00FFF7BCF94AF201041148FFF7BCF910B144
:108F7C00013CF9D113E00F48FFF7B0F94AF20104B4
:108F8C000C48FFF7B0F910B1013CF9D107E00848E3
:108F9C000121FFF7ACF907480121FFF7A8F911B03F
:108FAC00F0BD00BF080002404C240140C820010065
:108FBC00002401400028014030B54FF4E06085B03A
:108FCC00FFF7A8F8164C2F23ADF804303123ADF879
:108FDC00083000254FF48073204601A9ADF80A3003
:108FEC00ADF80650FFF7BEFC20460121FFF719FD36
:108FFC0001210A462046FFF70BFD20460121FFF711
:10900C00FBFC1D238DF80030684601238DF80150C0
:10901C008DF802308DF80330FFF786F805B030BDBF
:10902C00000400401FB500200F21FFF797FB012023
:10903C000521FFF793FB03210120FFF78FFB4FF472
:10904C001A73029300238DF80C300124102302A80C
:10905C008DF80D308DF80E40FFF73AFA17238DF886
:10906C00043001A80F238DF805308DF806308DF8EB
:10907C000740FFF759F804B010BD10B5044645F28F
:10908C005550FFF781FB0320FFF784FB0A20604358
:10909C00C0F3CF00FFF784FBFFF788FBBDE810405F
:1090AC00FFF78CBBFFF782BB10B5C02386B0ADF8C1
:1090BC00043003238DF8063001A91C2310488DF8C9
:1090CC000730FFF7C9FA0023ADF80C304BF6FF73ED
:1090DC00ADF80E304FF48063ADF812304FF480438E
:1090EC00ADF81430074C084B06A941F8103D20464A
:1090FC00FFF7A4FC20460121FFF70AFD06B010BDC6
:10910C00000C014000540040801A060070B5044663
:10911C000D46164622484FF40031FFF736FD002865
:10912C00F8D11F480121FFF7FFFC1D481D49FFF72F
:10913C001EFD0028F9D07100194801F0FE01002233
:10914C00FFF70CFD16481849FFF711FD0028F9D060
:10915C0021781348FFF700FD013DEDB20135661C87
:10916C002C44A6420BD00E481049FFF70EFD0028E8
:10917C00F9D00B4816F8011BFFF7EEFCF1E7084895
:10918C000A49FFF702FD0028F9D005480121FFF735
:10919C00D7FC03480649FFF7F8FC0028F9D170BD4D
:1091AC00005400400100030082000700040000107E
:1091BC0010000010034B1A6810441A688242FCD34A
:1091CC00704700BFD020010007B51D228DF80400A8
:1091DC008DF8051001A80221FFF798FF03B05DF888
:1091EC0004FB08B52B200021FFF7EEFF40212B20BC
:1091FC00FFF7EAFF0220FFF7DDFF15207821FFF7CC
:10920C00E3FF17200F21FFF7DFFF18200121FFF7E5
:10921C00DBFF2D200421FFF7D7FF2E200421FFF7C1
:10922C00D3FFBDE808402A201921FFF7CDBF00006D
:10923C002DE9F0419C4F9D4C9D4D3B88226829683F
:10924C009C4E521AC72A32789BB28CBFDBB20023D9
:10925C00062A00F26081DFE812F0070026006500A4
:10926C008A00ED001001540120682C688F49001B06
:10927C00B0F57A7F8E4A40F24E8113F0010006D091
:10928C00012333700B6813600B68136014E09C07A8
:10929C0040F14181032333700B6813600B6813603A
:1092AC003880BDE8F08113F0010209D0022333703D
:1092BC0023682B6023682B6000233B80BDE8F08182
:1092CC009B0701D50523BDE07B4BDA7A98468AB122
:1092DC00587A4EF660237949434322680968521A3A
:1092EC009A4207D9714A12682968521A9A4201D9CE
:1092FC0004230FE1FFF764FC0A23B0FBF3F098F8AA
:10930C000A3080B283420AD90623337023682B605B
:10931C0023682B6000233B802268694B1A60B8F8E5
:10932C000000A4E0DF0709D52368634A2B601368AB
:10933C00B3F57A7F40F2EF80643B0CE013F0020F40
:10934C0023680BD041F293115B4A2B6013688B425C
:10935C0000F2E18064331360BDE8F0812A689B1A47
:10936C0040F6B832934240F2D680012312E02268D4
:10937C002C684E48121BB2F5967F4D49C0F0CB803D
:10938C00DC0710D503684F4A0B601378052B06D108
:10939C00002313703370BDE8F04100F04DBB013376
:1093AC001370BDE8F0819A0740F1B58003680B603B
:1093BC00444B1B78052B00F2AE80DFE803F0030D65
:1093CC0019232B333C4A937A0133DBB2182B88BF19
:1093DC000A239372BDE8F08140F6B831364A5368DF
:1093EC0064338B4288BF4FF47A735360BDE8F081CD
:1093FC00314A537A0133DBB21E2B88BF01235372DF
:10940C00BDE8F0812C4AD37AB3FA83F35B09D372AB
:10941C00BDE8F081284A137BB3FA83F35B0913731D
:10942C00BDE8F081244A537BB3FA83F35B09537391
:10943C00BDE8F08113F0010201D0012337E79B074F
:10944C0008D50123337023682B6023682B603A8086
:10945C00BDE8F081184BDA7A42B1184922680968E4
:10946C00521AB2F57A7F01D2012353E0988800F0AA
:10947C00B1FA154B1860BDE8F0814FF00008124BA3
:10948C0040460121C3F80080FFF722FCB0F5FA7FBB
:10949C001CD2236886F800802B6023682B60A7F809
:1094AC000080BDE8F08100BFD4200100D020010075
:1094BC00D8200100B9200100A8200100CC20010017
:1094CC00A0200100B82001009C2001002168286820
:1094DC00124A091AC829124B1DD911681868091AA1
:1094EC00B1F5FA6F17D2398889B2A1B1116886F833
:1094FC000080196012681A600A4BA3F80080BDE85E
:10950C00F081094A236812689B1A40F6B8329342DC
:10951C0001D900233370BDE8F08100BFD0200100D9
:10952C00D8200100D4200100A0200100074B1B7B98
:10953C003BB100EBC00000F5C860052390FBF3F0D5
:10954C0080B20A23B0FBF3F000F021BAA82001008E
:10955C00002010B50146FFF7BBFB5C4B04461B78A3
:10956C00062B00F2B180DFE803F0041A3A55989FFD
:10957C00A9005749574A0B6812689B1A564A9342DE
:10958C0009D90B68554909685B1A934203D9BDE8A0
:10959C00104000F0D7B800F0C3F851488FE0514BA1
:1095AC001A680AB9432005E01B68B3F5FA7F34BF8B
:1095BC0020204820052100F07FF920460021FFF7EC
:1095CC00B5FF2020032100F077F92020042100F0C2
:1095DC0073F92020062100F06FF9202015E02020DF
:1095EC00002100F069F93C20012100F065F93E4BA7
:1095FC0002211888FFF79AFF2020052100F05CF962
:10960C002020062100F058F93E200721BDE810402B
:10961C0000F052B9354B1B78052B55D8DFE803F019
:10962C00030E1D282F363248052100F08BF92E4BE6
:10963C000521987A00F094F95620E6E72D4805218B
:10964C0000F080F9BDE81040274B0A205B6805212B
:10965C00B3FBF0F080B200F09AB92748062100F075
:10966C0071F9BDE81040204B0621587A00F078B90A
:10967C001D4BDB7A0BB1214821E021481FE01A4B2E
:10968C001B7B0BB11F481AE01F4818E0164B5B7B85
:10969C000BB11E4813E01E4811E01E48032100F0D8
:1096AC0051F92046032105E01B48032100F04AF93B
:1096BC0020460421BDE81040FFF738BF17480821A9
:1096CC00BDE8104000F03EB910BD00BFB92001004C
:1096DC00D0200100CC200100E0930400D820010030
:1096EC005C9B00009C200100A8200100B820010018
:1096FC00659B00006B9B0000719B0000789B000039
:10970C00819B00008A9B0000939B00009C9B0000A7
:10971C00A59B0000AE9B0000B29B0000B79B000015
:10972C0007B5074B062118689B8800903C226846B9
:10973C00ADF80430FFF7EAFC03B05DF804FB00BFA2
:10974C00C09B000007B5074B062153F8060F3C22BF
:10975C009B8800906846ADF80430FFF7D7FC03B047
:10976C005DF804FBC09B000007B50B4B01A81B88E0
:10977C0002213C22ADF80430FFF7C8FCA12301A85C
:10978C0002213C228DF80530FFF7C0FC034B002270
:10979C001A7003B05DF804FBCC9B0000C81F0100DD
:1097AC0010B54023A0B001300C468DF80030C1B28A
:1097BC0001238B4205DA14F8012B0DF80320013339
:1097CC00F7E768463C22FFF7A1FC204620B010BD0D
:1097DC0037B56B4605460C460A4A52F80E0F5168CF
:1097EC003C2203C3084B9DF80110187821442844EF
:1097FC008DF805008DF8011068460821FFF786FCEE
:10980C0003B030BDC09B0000C81F0100F8B507466F
:10981C0016460B4411F0070FDDB24FEAD1040CBF12
:10982C00E4B2013415F0070F4FEAD5050CBFEDB2C9
:10983C000135AC420BD221463846FFF7C9FF304602
:10984C000699FFF7ADFF01340690E4B2F1E70698F4
:10985C00F8BD000007B54FF48073ADF80430032356
:10986C008DF806300448102301A98DF80730FEF757
:10987C00F3FE03B05DF804FB000C014010B50C4C7A
:10988C004FF480712046FEF737FF0220FFF792FC61
:10989C0020464FF48071FEF72DFF0220FFF78AFC63
:1098AC00BDE8104003482E213C22FFF72FBC00BF1F
:1098BC0000080140C91F0100072907B5034635D828
:1098CC0001EB4101A3F141028800192AC0B203D86F
:1098DC00A3F13702182105E0A3F13001CAB2092A1D
:1098EC0004D81822134B02FB013319E0092B04D8BE
:1098FC00104A182101FB032312E0202B0BD03C2B28
:10990C000BD03E2B0BD00B4A02F56A712E2B14BFD9
:10991C0013460B4604E0084B02E0084B00E0084BF2
:10992C00009300210C221023FFF770FF03B05DF8A9
:10993C0004FB00BFD69B0000369F00004E9F00002A
:10994C00669F000070B5054604464618611BB4427C
:10995C00C9B204D014F8010BFFF7AEFFF6E770BDE7
:10996C00F8B50A25B0FBF5F40746E0B2B0FBF5F309
:10997C000E4605FB1300C0B2FFF79EFF05FB1470EB
:10998C00711CC0B2C9B2BDE8F840FFF795BFF8B57D
:10999C006423B0FBF3F30A240746B3FBF4F004FB97
:1099AC001030C0B20D46FFF787FFB7FBF4F6B0B22C
:1099BC00B0FBF4F304FB1300691CC0B2C9B2FFF78F
:1099CC007BFF04FB1670A91CC0B2C9B2BDE8F840FD
:1099DC00FFF772BF38B5012104460020FFF778F974
:1099EC00221A0E4C12B263680D4D534323EAE371F5
:1099FC002368A46853432A882880821A12B204FB75
:109A0C0012334CF250329142D4BF5B189B1823EAAC
:109A1C00E3739342A8BF1346184638BDBC2001001F
:109A2C00A4200100034B16200721022283E8070023
:109A3C00704700BFBC20010010B5FEF79BFD342021
:109A4C00FEF7A4FD0948FEF7CDFD0428FAD1074C1A
:109A5C0004F17843064AA3F53F432046D15AFEF75A
:109A6C00DFFD044B02349C42F2D110BD00BF000854
:109A7C00A820010010BF000840F2DC52074B4FF445
:109A8C0048615A6001225A72DA720A229A720222D0
:109A9C001A72002219601A735A737047A8200100B9
:109AAC0008B50A4B0A4A58880A491A4450520A4ABD
:109ABC0002339342F6D10B7A022B05D0FFF7DCFF71
:109ACC00BDE80840FFF7B8BF08BD00BFFEBE0008E8
:109ADC000241FFF7A82001000EBF00080E4B70B525
:109AEC001E460E4C0025E41AA410A54204D056F8CC
:109AFC00253098470135F8E7FEF77CFA084B094CFE
:109B0C001E46E41AA4100025A54204D056F82530B0
:109B1C0098470135F8E770BDA81F0100A81F010088
:109B2C00A81F0100AC1F010003460244934202D05F
:0C9B3C0003F8011BFAE77047FEE700BFCA
:0C9B4800F8B500BFF8BC08BC9E46704792
:109B54005269636172646F00202049444C4520209F
:109B6400005556434F200053544D50200053544940
:109B74004D4520004D4F54494F4E2054004D4F54F5
:109B8400494F4E204600544D50554E5420460054E3
:109B94004D50554E54204300464C5044535020548D
:109BA40000464C50445350204600534C5000434F01
:109BB4004F4C004C4F5720564F4C5400808D80140E
:109BC40080AF808D801080AE80C880B080218000FE
:109BD400807F00F0FC0E82C2621EFCF000000003D5
:109BE4000F1F1110101C0F03000000080402FEFEDA
:109BF400000000000000001010101F1F10101000C3
:109C040000000004020202C6FC78000000000018F4
:109C14001C161311101010000000000202424266CC
:109C2400FE9C00000000001010101010080F070028
:109C34000000000080E0301C06FEFE00000000036F
:109C440003020202021F1F020200007E7E42424201
:109C5400C28200000000001010101010080F07004E
:109C6400000000E0F88C444242C2828000000007F9
:109C74000F18101010180F0700000002020202C291
:109C8400F21E060000000000101C0F03000000007C
:109C9400000000387C66C282C2667C3C0000000E74
:109CA4000F19101010190F0E000000787CC6828264
:109CB4008246FCF80000000010101010080C070386
:109CC4000000000080F01E021EF080000000001C56
:109CD4000F03020202030F1C000000FEFE42424278
:109CE400E6BE9C000000001F1F101010180F070094
:109CF400000000F0F80C0602020204000000000359
:109D04000F0C181010100800000000FEFE020202E2
:109D1400060CFCF00000001F1F101010180C0703A5
:109D2400000000FEFE424242424200000000001FCA
:109D34001F10101010100000000000FEFE8282822E
:109D4400828200000000001F1F00000000000000CD
:109D5400000000F0F80C06028282828400000003F6
:109D64000F0C181010101F1F000000FEFE40404092
:109D740040FEFE000000001F1F000000001F1F0027
:109D8400000000020202FEFE0202020000000010B7
:109D940010101F1F10101000000000020202020227
:109DA400FEFE000000000008101010180F0700004D
:109DB400000000FEFEC0E030180C06020000001F88
:109DC4001F000103060C1810000000FEFE00000036
:109DD400000000000000001F1F10101010100000F1
:109DE40000000000FE063CC0C03C06FE000000105F
:109DF4001F0000010100001F180000FEFE1E7080FD
:109E040000FEFE000000001F1F0000031C1F1F00B7
:109E1400000000F0FC0C0202020EFCF00000000343
:109E24000F1C1010100C0F03000000FEFE020202B3
:109E340086FC78000000001F1F01010101000000E2
:109E4400000000F0F80C020202020CFCF000000317
:109E54000F1C103070D88C8F834000FEFE4242C22B
:109E6400E63C1C000000001F1F000000010F1C1036
:109E7400000000387C66C2C2828400000000000832
:109E840010101010190F070000000002020202FE59
:109E9400FE020202020000000000001F1F0000007A
:109EA400000000FEFE0000000000FEFE00000007AF
:109EB4000F18101010180F070000000E7EE00000AD
:109EC40000E07C0E0000000000031F181F030000C8
:109ED4000000007EFE0000E0E00000FE7E000000C6
:109EE4001F180F01010F181F00000002061C38E0A4
:109EF400E0381C0602000010180E070101070E18B6
:109F0400100000020E3CF0C0C0F03C0E0200000045
:109F14000000001F1F000000000000020202C2E255
:109F24003A0E0200000000101C171110101010004F
:109F3400000000000000000000000000000000001D
:109F4400000000000000000000000060F0980C0613
:109F540002000000000000000001030604000000ED
:109F640000000002060C98F06000000000000004ED
:109F740006030100000000000000000000000000D3
:109F8400000000000000000000000F0F0F0F000091
:089F940000000000F81F0100AD
:089F9C0010E1FF7F010000004D
:049FA40000000000B9
:020000021000EC
:041FA8007580000040
:041FAC005180000060
:041FB000000000002D
:101FB40002040608000000000102030401020304F5
:101FC400060708092080AE80D5805180A880108043
:101FD400C080D38000804080A0808D801480DA800F
:101FE400028081803380D980F180DB803080A480BE
:101FF400A680AF0000000000000000000000000008
:1020040000000000000000000000000000000000CC
:10201400000000009A9B0000000000000000000087
:1020240000000000000000000000000000000000AC
:10203400000000000000000000000000000000009C
:10204400000000000000000000000000000000008C
:042054000000000088
:04000003000080ADCC
:00000001FF
